{
  "contractName": "EventContract",
  "abi": [
    {
      "inputs": [
        {
          "internalType": "uint256",
          "name": "",
          "type": "uint256"
        }
      ],
      "name": "events",
      "outputs": [
        {
          "internalType": "address",
          "name": "admin",
          "type": "address"
        },
        {
          "internalType": "string",
          "name": "name",
          "type": "string"
        },
        {
          "internalType": "uint256",
          "name": "date",
          "type": "uint256"
        },
        {
          "internalType": "uint256",
          "name": "price",
          "type": "uint256"
        },
        {
          "internalType": "uint256",
          "name": "ticketCount",
          "type": "uint256"
        },
        {
          "internalType": "uint256",
          "name": "ticketRemaining",
          "type": "uint256"
        }
      ],
      "stateMutability": "view",
      "type": "function",
      "constant": true
    },
    {
      "inputs": [],
      "name": "nextId",
      "outputs": [
        {
          "internalType": "uint256",
          "name": "",
          "type": "uint256"
        }
      ],
      "stateMutability": "view",
      "type": "function",
      "constant": true
    },
    {
      "inputs": [
        {
          "internalType": "address",
          "name": "",
          "type": "address"
        },
        {
          "internalType": "uint256",
          "name": "",
          "type": "uint256"
        }
      ],
      "name": "tickets",
      "outputs": [
        {
          "internalType": "uint256",
          "name": "",
          "type": "uint256"
        }
      ],
      "stateMutability": "view",
      "type": "function",
      "constant": true
    },
    {
      "inputs": [
        {
          "internalType": "string",
          "name": "name",
          "type": "string"
        },
        {
          "internalType": "uint256",
          "name": "date",
          "type": "uint256"
        },
        {
          "internalType": "uint256",
          "name": "price",
          "type": "uint256"
        },
        {
          "internalType": "uint256",
          "name": "ticketCount",
          "type": "uint256"
        }
      ],
      "name": "createEvent",
      "outputs": [],
      "stateMutability": "nonpayable",
      "type": "function"
    },
    {
      "inputs": [
        {
          "internalType": "uint256",
          "name": "id",
          "type": "uint256"
        },
        {
          "internalType": "uint256",
          "name": "quantity",
          "type": "uint256"
        }
      ],
      "name": "buyTicket",
      "outputs": [],
      "stateMutability": "payable",
      "type": "function",
      "payable": true
    },
    {
      "inputs": [
        {
          "internalType": "uint256",
          "name": "eventId",
          "type": "uint256"
        },
        {
          "internalType": "uint256",
          "name": "quantity",
          "type": "uint256"
        },
        {
          "internalType": "address",
          "name": "to",
          "type": "address"
        }
      ],
      "name": "transferTicket",
      "outputs": [],
      "stateMutability": "nonpayable",
      "type": "function"
    }
  ],
  "bytecode": "0x608060405234801561001057600080fd5b5061120f806100206000396000f3fe6080604052600436106100555760003560e01c80630374ab0b1461005a5780630b79143014610083578063298ec208146100c557806361b8ce8c146100e1578063dae7a13c1461010c578063f086a09b14610149575b600080fd5b34801561006657600080fd5b50610081600480360381019061007c9190610998565b610172565b005b34801561008f57600080fd5b506100aa60048036038101906100a59190610a20565b610340565b6040516100bc96959493929190610b36565b60405180910390f35b6100df60048036038101906100da9190610b9e565b610424565b005b3480156100ed57600080fd5b506100f661060c565b6040516101039190610bde565b60405180910390f35b34801561011857600080fd5b50610133600480360381019061012e9190610c25565b610612565b6040516101409190610bde565b60405180910390f35b34801561015557600080fd5b50610170600480360381019061016b9190610c65565b610637565b005b4283116101b4576040517f08c379a00000000000000000000000000000000000000000000000000000000081526004016101ab90610d2a565b60405180910390fd5b600081116101f7576040517f08c379a00000000000000000000000000000000000000000000000000000000081526004016101ee90610dbc565b60405180910390fd5b6040518060c001604052803373ffffffffffffffffffffffffffffffffffffffff16815260200186868080601f016020809104026020016040519081016040528093929190818152602001838380828437600081840152601f19601f82011690508083019250505050505050815260200184815260200183815260200182815260200182815250600080600254815260200190815260200160002060008201518160000160006101000a81548173ffffffffffffffffffffffffffffffffffffffff021916908373ffffffffffffffffffffffffffffffffffffffff16021790555060208201518160010190805190602001906102f5929190610850565b5060408201518160020155606082015181600301556080820151816004015560a082015181600501559050506002600081548092919061033490610e0b565b91905055505050505050565b60006020528060005260406000206000915090508060000160009054906101000a900473ffffffffffffffffffffffffffffffffffffffff169080600101805461038990610e82565b80601f01602080910402602001604051908101604052809291908181526020018280546103b590610e82565b80156104025780601f106103d757610100808354040283529160200191610402565b820191906000526020600020905b8154815290600101906020018083116103e557829003601f168201915b5050505050908060020154908060030154908060040154908060050154905086565b816000806000838152602001908152602001600020600201540361047d576040517f08c379a000000000000000000000000000000000000000000000000000000000815260040161047490610eff565b60405180910390fd5b826000808281526020019081526020016000206002015442106104d5576040517f08c379a00000000000000000000000000000000000000000000000000000000081526004016104cc90610f6b565b60405180910390fd5b600080600086815260200190815260200160002090508381600301546104fb9190610f8b565b341461053c576040517f08c379a000000000000000000000000000000000000000000000000000000000815260040161053390611057565b60405180910390fd5b8381600501541015610583576040517f08c379a000000000000000000000000000000000000000000000000000000000815260040161057a906110c3565b60405180910390fd5b8381600501600082825461059791906110e3565b9250508190555083600160003373ffffffffffffffffffffffffffffffffffffffff1673ffffffffffffffffffffffffffffffffffffffff168152602001908152602001600020600087815260200190815260200160002060008282546105fe9190611117565b925050819055505050505050565b60025481565b6001602052816000526040600020602052806000526040600020600091509150505481565b8260008060008381526020019081526020016000206002015403610690576040517f08c379a000000000000000000000000000000000000000000000000000000000815260040161068790610eff565b60405180910390fd5b836000808281526020019081526020016000206002015442106106e8576040517f08c379a00000000000000000000000000000000000000000000000000000000081526004016106df90610f6b565b60405180910390fd5b83600160003373ffffffffffffffffffffffffffffffffffffffff1673ffffffffffffffffffffffffffffffffffffffff168152602001908152602001600020600087815260200190815260200160002054101561077b576040517f08c379a0000000000000000000000000000000000000000000000000000000008152600401610772906111b9565b60405180910390fd5b83600160003373ffffffffffffffffffffffffffffffffffffffff1673ffffffffffffffffffffffffffffffffffffffff168152602001908152602001600020600087815260200190815260200160002060008282546107db91906110e3565b9250508190555083600160008573ffffffffffffffffffffffffffffffffffffffff1673ffffffffffffffffffffffffffffffffffffffff168152602001908152602001600020600087815260200190815260200160002060008282546108429190611117565b925050819055505050505050565b82805461085c90610e82565b90600052602060002090601f01602090048101928261087e57600085556108c5565b82601f1061089757805160ff19168380011785556108c5565b828001600101855582156108c5579182015b828111156108c45782518255916020019190600101906108a9565b5b5090506108d291906108d6565b5090565b5b808211156108ef5760008160009055506001016108d7565b5090565b600080fd5b600080fd5b600080fd5b600080fd5b600080fd5b60008083601f840112610922576109216108fd565b5b8235905067ffffffffffffffff81111561093f5761093e610902565b5b60208301915083600182028301111561095b5761095a610907565b5b9250929050565b6000819050919050565b61097581610962565b811461098057600080fd5b50565b6000813590506109928161096c565b92915050565b6000806000806000608086880312156109b4576109b36108f3565b5b600086013567ffffffffffffffff8111156109d2576109d16108f8565b5b6109de8882890161090c565b955095505060206109f188828901610983565b9350506040610a0288828901610983565b9250506060610a1388828901610983565b9150509295509295909350565b600060208284031215610a3657610a356108f3565b5b6000610a4484828501610983565b91505092915050565b600073ffffffffffffffffffffffffffffffffffffffff82169050919050565b6000610a7882610a4d565b9050919050565b610a8881610a6d565b82525050565b600081519050919050565b600082825260208201905092915050565b60005b83811015610ac8578082015181840152602081019050610aad565b83811115610ad7576000848401525b50505050565b6000601f19601f8301169050919050565b6000610af982610a8e565b610b038185610a99565b9350610b13818560208601610aaa565b610b1c81610add565b840191505092915050565b610b3081610962565b82525050565b600060c082019050610b4b6000830189610a7f565b8181036020830152610b5d8188610aee565b9050610b6c6040830187610b27565b610b796060830186610b27565b610b866080830185610b27565b610b9360a0830184610b27565b979650505050505050565b60008060408385031215610bb557610bb46108f3565b5b6000610bc385828601610983565b9250506020610bd485828601610983565b9150509250929050565b6000602082019050610bf36000830184610b27565b92915050565b610c0281610a6d565b8114610c0d57600080fd5b50565b600081359050610c1f81610bf9565b92915050565b60008060408385031215610c3c57610c3b6108f3565b5b6000610c4a85828601610c10565b9250506020610c5b85828601610983565b9150509250929050565b600080600060608486031215610c7e57610c7d6108f3565b5b6000610c8c86828701610983565b9350506020610c9d86828701610983565b9250506040610cae86828701610c10565b9150509250925092565b7f63616e206f6e6c79206f7267616e697a65206576656e7420617420612066757460008201527f7572652064617465000000000000000000000000000000000000000000000000602082015250565b6000610d14602883610a99565b9150610d1f82610cb8565b604082019050919050565b60006020820190508181036000830152610d4381610d07565b9050919050565b7f63616e206f6e6c79206f7267616e697a65206576656e7420776974682061742060008201527f6c656173742031207469636b6574000000000000000000000000000000000000602082015250565b6000610da6602e83610a99565b9150610db182610d4a565b604082019050919050565b60006020820190508181036000830152610dd581610d99565b9050919050565b7f4e487b7100000000000000000000000000000000000000000000000000000000600052601160045260246000fd5b6000610e1682610962565b91507fffffffffffffffffffffffffffffffffffffffffffffffffffffffffffffffff8203610e4857610e47610ddc565b5b600182019050919050565b7f4e487b7100000000000000000000000000000000000000000000000000000000600052602260045260246000fd5b60006002820490506001821680610e9a57607f821691505b602082108103610ead57610eac610e53565b5b50919050565b7f74686973206576656e7420646f6573206e6f7420657869737400000000000000600082015250565b6000610ee9601983610a99565b9150610ef482610eb3565b602082019050919050565b60006020820190508181036000830152610f1881610edc565b9050919050565b7f6576656e74206d75737420626520616374697665000000000000000000000000600082015250565b6000610f55601483610a99565b9150610f6082610f1f565b602082019050919050565b60006020820190508181036000830152610f8481610f48565b9050919050565b6000610f9682610962565b9150610fa183610962565b9250817fffffffffffffffffffffffffffffffffffffffffffffffffffffffffffffffff0483118215151615610fda57610fd9610ddc565b5b828202905092915050565b7f65746865722073656e74206d75737420626520657175616c20746f20746f746160008201527f6c207469636b657420636f737400000000000000000000000000000000000000602082015250565b6000611041602d83610a99565b915061104c82610fe5565b604082019050919050565b6000602082019050818103600083015261107081611034565b9050919050565b7f6e6f7420656e6f756768207469636b6574206c65667400000000000000000000600082015250565b60006110ad601683610a99565b91506110b882611077565b602082019050919050565b600060208201905081810360008301526110dc816110a0565b9050919050565b60006110ee82610962565b91506110f983610962565b92508282101561110c5761110b610ddc565b5b828203905092915050565b600061112282610962565b915061112d83610962565b9250827fffffffffffffffffffffffffffffffffffffffffffffffffffffffffffffffff0382111561116257611161610ddc565b5b828201905092915050565b7f6e6f7420656e6f756768207469636b6574000000000000000000000000000000600082015250565b60006111a3601183610a99565b91506111ae8261116d565b602082019050919050565b600060208201905081810360008301526111d281611196565b905091905056fea2646970667358221220fa41c09dd7503982d89fb3b8667f14f23bce2bd96589b4e731b80635e63b411464736f6c634300080d0033",
  "immutableReferences": {},
  "source": "// SPDX-License-Identifier: GPL-3.0\npragma solidity ^0.8.13;\n\ncontract EventContract {\n  struct Event {\n    address admin;\n    string name;\n    uint date;\n    uint price;\n    uint ticketCount;\n    uint ticketRemaining;\n  }\n  mapping(uint => Event) public events;\n  mapping(address => mapping(uint => uint)) public tickets;\n  uint public nextId;\n\n  function createEvent(\n    string calldata name,\n    uint date,\n    uint price,\n    uint ticketCount)\n    external {\n    require(date > block.timestamp, 'can only organize event at a future date');\n    require(ticketCount > 0, 'can only organize event with at least 1 ticket');\n    events[nextId] = Event(\n      msg.sender,\n      name,\n      date,\n      price,\n      ticketCount,\n      ticketCount\n    );\n    nextId++;\n  }\n\n  function buyTicket(uint id, uint quantity)\n    eventExist(id)\n    eventActive(id)\n    payable\n    external {\n    Event storage _event = events[id];\n    require(msg.value == (_event.price * quantity), 'ether sent must be equal to total ticket cost');\n    require(_event.ticketRemaining >= quantity, 'not enough ticket left');\n    _event.ticketRemaining -= quantity;\n    tickets[msg.sender][id] += quantity;\n  }\n\n  function transferTicket(uint eventId, uint quantity, address to)\n    eventExist(eventId)\n    eventActive(eventId)\n    external {\n      require(tickets[msg.sender][eventId] >= quantity, 'not enough ticket');\n      tickets[msg.sender][eventId] -= quantity;\n      tickets[to][eventId] += quantity;\n  }\n\n  modifier eventExist(uint id) {\n    require(events[id].date != 0, 'this event does not exist');\n    _;\n  }\n  modifier eventActive(uint id) {\n    require(block.timestamp < events[id].date, 'event must be active');\n    _;\n  }\n}\n",
  "sourcePath": "/Users/yuriikhomych/Projects/dapp-30/day17-event-organization/frontend/contracts/EventContract.sol",
  "compiler": {
    "name": "solc",
    "version": "0.8.13+commit.abaa5c0e.Emscripten.clang"
  },
  "schemaVersion": "3.4.7",
  "updatedAt": "2022-06-25T15:27:36.970Z",
  "networkType": "ethereum",
  "devdoc": {
    "kind": "dev",
    "methods": {},
    "version": 1
  },
  "userdoc": {
    "kind": "user",
    "methods": {},
    "version": 1
  }
}