{
  "contractName": "Wallet",
  "abi": [
    {
      "inputs": [
        {
          "internalType": "address[]",
          "name": "_approvers",
          "type": "address[]"
        },
        {
          "internalType": "uint256",
          "name": "_quorum",
          "type": "uint256"
        }
      ],
      "stateMutability": "payable",
      "type": "constructor",
      "payable": true
    },
    {
      "inputs": [
        {
          "internalType": "uint256",
          "name": "",
          "type": "uint256"
        }
      ],
      "name": "approvers",
      "outputs": [
        {
          "internalType": "address",
          "name": "",
          "type": "address"
        }
      ],
      "stateMutability": "view",
      "type": "function",
      "constant": true
    },
    {
      "inputs": [],
      "name": "nextId",
      "outputs": [
        {
          "internalType": "uint256",
          "name": "",
          "type": "uint256"
        }
      ],
      "stateMutability": "view",
      "type": "function",
      "constant": true
    },
    {
      "inputs": [],
      "name": "quorum",
      "outputs": [
        {
          "internalType": "uint256",
          "name": "",
          "type": "uint256"
        }
      ],
      "stateMutability": "view",
      "type": "function",
      "constant": true
    },
    {
      "inputs": [
        {
          "internalType": "uint256",
          "name": "amount",
          "type": "uint256"
        },
        {
          "internalType": "address payable",
          "name": "to",
          "type": "address"
        }
      ],
      "name": "createTransfer",
      "outputs": [],
      "stateMutability": "nonpayable",
      "type": "function"
    },
    {
      "inputs": [
        {
          "internalType": "uint256",
          "name": "id",
          "type": "uint256"
        }
      ],
      "name": "sendTransfer",
      "outputs": [],
      "stateMutability": "nonpayable",
      "type": "function"
    }
  ],
  "bytecode": "0x608060405260405162000d3b38038062000d3b833981810160405281019062000029919062000328565b81600090805190602001906200004192919062000051565b508060018190555050506200038e565b828054828255906000526020600020908101928215620000cd579160200282015b82811115620000cc5782518260006101000a81548173ffffffffffffffffffffffffffffffffffffffff021916908373ffffffffffffffffffffffffffffffffffffffff1602179055509160200191906001019062000072565b5b509050620000dc9190620000e0565b5090565b5b80821115620000fb576000816000905550600101620000e1565b5090565b6000604051905090565b600080fd5b600080fd5b600080fd5b6000601f19601f8301169050919050565b7f4e487b7100000000000000000000000000000000000000000000000000000000600052604160045260246000fd5b620001638262000118565b810181811067ffffffffffffffff8211171562000185576200018462000129565b5b80604052505050565b60006200019a620000ff565b9050620001a8828262000158565b919050565b600067ffffffffffffffff821115620001cb57620001ca62000129565b5b602082029050602081019050919050565b600080fd5b600073ffffffffffffffffffffffffffffffffffffffff82169050919050565b60006200020e82620001e1565b9050919050565b620002208162000201565b81146200022c57600080fd5b50565b600081519050620002408162000215565b92915050565b60006200025d6200025784620001ad565b6200018e565b90508083825260208201905060208402830185811115620002835762000282620001dc565b5b835b81811015620002b057806200029b88826200022f565b84526020840193505060208101905062000285565b5050509392505050565b600082601f830112620002d257620002d162000113565b5b8151620002e484826020860162000246565b91505092915050565b6000819050919050565b6200030281620002ed565b81146200030e57600080fd5b50565b6000815190506200032281620002f7565b92915050565b6000806040838503121562000342576200034162000109565b5b600083015167ffffffffffffffff8111156200036357620003626200010e565b5b6200037185828601620002ba565b9250506020620003848582860162000311565b9150509250929050565b61099d806200039e6000396000f3fe608060405234801561001057600080fd5b50600436106100575760003560e01c80631703a0181461005c5780634c12fa471461007a57806361b8ce8c14610096578063d1c68d1e146100b4578063d3650fb8146100d0575b600080fd5b610064610100565b6040516100719190610685565b60405180910390f35b610094600480360381019061008f919061072f565b610106565b005b61009e6102e5565b6040516100ab9190610685565b60405180910390f35b6100ce60048036038101906100c9919061076f565b6102eb565b005b6100ea60048036038101906100e5919061076f565b61062d565b6040516100f791906107bd565b60405180910390f35b60015481565b6000805b6000805490508110156101a0573373ffffffffffffffffffffffffffffffffffffffff1660008281548110610142576101416107d8565b5b9060005260206000200160009054906101000a900473ffffffffffffffffffffffffffffffffffffffff1673ffffffffffffffffffffffffffffffffffffffff160361018d57600191505b808061019890610836565b91505061010a565b5060011515811515146101e8576040517f08c379a00000000000000000000000000000000000000000000000000000000081526004016101df906108db565b60405180910390fd5b6040518060a0016040528060035481526020018481526020018373ffffffffffffffffffffffffffffffffffffffff1681526020016000815260200160001515815250600260006003548152602001908152602001600020600082015181600001556020820151816001015560408201518160020160006101000a81548173ffffffffffffffffffffffffffffffffffffffff021916908373ffffffffffffffffffffffffffffffffffffffff1602179055506060820151816003015560808201518160040160006101000a81548160ff021916908315150217905550905050600360008154809291906102db90610836565b9190505550505050565b60035481565b6000805b600080549050811015610385573373ffffffffffffffffffffffffffffffffffffffff1660008281548110610327576103266107d8565b5b9060005260206000200160009054906101000a900473ffffffffffffffffffffffffffffffffffffffff1673ffffffffffffffffffffffffffffffffffffffff160361037257600191505b808061037d90610836565b9150506102ef565b5060011515811515146103cd576040517f08c379a00000000000000000000000000000000000000000000000000000000081526004016103c4906108db565b60405180910390fd5b600015156002600084815260200190815260200160002060040160009054906101000a900460ff16151514610437576040517f08c379a000000000000000000000000000000000000000000000000000000000815260040161042e90610947565b60405180910390fd5b60001515600460003373ffffffffffffffffffffffffffffffffffffffff1673ffffffffffffffffffffffffffffffffffffffff168152602001908152602001600020600084815260200190815260200160002060009054906101000a900460ff16151503610536576001600460003373ffffffffffffffffffffffffffffffffffffffff1673ffffffffffffffffffffffffffffffffffffffff168152602001908152602001600020600084815260200190815260200160002060006101000a81548160ff02191690831515021790555060026000838152602001908152602001600020600301600081548092919061053090610836565b91905055505b6001546002600084815260200190815260200160002060030154106106285760016002600084815260200190815260200160002060040160006101000a81548160ff02191690831515021790555060006002600084815260200190815260200160002060020160009054906101000a900473ffffffffffffffffffffffffffffffffffffffff1690506000600260008581526020019081526020016000206001015490508173ffffffffffffffffffffffffffffffffffffffff166108fc829081150290604051600060405180830381858888f19350505050158015610620573d6000803e3d6000fd5b505050610629565b5b5050565b6000818154811061063d57600080fd5b906000526020600020016000915054906101000a900473ffffffffffffffffffffffffffffffffffffffff1681565b6000819050919050565b61067f8161066c565b82525050565b600060208201905061069a6000830184610676565b92915050565b600080fd5b6106ae8161066c565b81146106b957600080fd5b50565b6000813590506106cb816106a5565b92915050565b600073ffffffffffffffffffffffffffffffffffffffff82169050919050565b60006106fc826106d1565b9050919050565b61070c816106f1565b811461071757600080fd5b50565b60008135905061072981610703565b92915050565b60008060408385031215610746576107456106a0565b5b6000610754858286016106bc565b92505060206107658582860161071a565b9150509250929050565b600060208284031215610785576107846106a0565b5b6000610793848285016106bc565b91505092915050565b60006107a7826106d1565b9050919050565b6107b78161079c565b82525050565b60006020820190506107d260008301846107ae565b92915050565b7f4e487b7100000000000000000000000000000000000000000000000000000000600052603260045260246000fd5b7f4e487b7100000000000000000000000000000000000000000000000000000000600052601160045260246000fd5b60006108418261066c565b91507fffffffffffffffffffffffffffffffffffffffffffffffffffffffffffffffff820361087357610872610807565b5b600182019050919050565b600082825260208201905092915050565b7f6f6e6c7920617070726f76657220616c6c6f7765640000000000000000000000600082015250565b60006108c560158361087e565b91506108d08261088f565b602082019050919050565b600060208201905081810360008301526108f4816108b8565b9050919050565b7f7472616e736665722068617320616c7265616479206265656e2073656e740000600082015250565b6000610931601e8361087e565b915061093c826108fb565b602082019050919050565b6000602082019050818103600083015261096081610924565b905091905056fea264697066735822122066436884388880b1e818d53cbb7d7ea68e285d801fc67d488ab818125266644e64736f6c634300080d0033",
  "immutableReferences": {},
  "source": "// SPDX-License-Identifier: GPL-3.0\npragma solidity ^0.8.13;\n\ncontract Wallet {\n  address[] public approvers;\n  uint public quorum;\n  struct Transfer {\n    uint id;\n    uint amount;\n    address payable to;\n    uint approvals;\n    bool sent;\n  }\n  mapping(uint => Transfer) transfers;\n  uint public nextId;\n  mapping(address => mapping(uint => bool)) approvals;\n\n  constructor(address[] memory _approvers, uint _quorum) payable {\n    approvers = _approvers;\n    quorum = _quorum;\n  }\n\n  function createTransfer(uint amount, address payable to) onlyApprover() external {\n    transfers[nextId] = Transfer(\n      nextId,\n      amount,\n      to,\n      0,\n      false\n    );\n    nextId++;\n  }\n\n  function sendTransfer(uint id) onlyApprover() external {\n    require(transfers[id].sent == false, 'transfer has already been sent');\n    if(approvals[msg.sender][id] == false) {\n      approvals[msg.sender][id] = true;\n      transfers[id].approvals++;\n    }\n    if(transfers[id].approvals >= quorum) {\n      transfers[id].sent = true;\n      address payable to = transfers[id].to;\n      uint amount = transfers[id].amount;\n      to.transfer(amount);\n      return;\n    }\n  }\n\n  modifier onlyApprover() {\n    bool allowed = false;\n    for(uint i; i < approvers.length; i++) {\n      if(approvers[i] == msg.sender) {\n        allowed = true;\n      }\n    }\n    require(allowed == true, 'only approver allowed');\n    _;\n  }\n}\n",
  "sourcePath": "/Users/yuriikhomych/Projects/dapp-30/day13-multisig-wallet/frontend/contracts/Wallet.sol",
  "compiler": {
    "name": "solc",
    "version": "0.8.13+commit.abaa5c0e.Emscripten.clang"
  },
  "schemaVersion": "3.4.7",
  "updatedAt": "2022-05-11T17:17:18.281Z",
  "networkType": "ethereum",
  "devdoc": {
    "kind": "dev",
    "methods": {},
    "version": 1
  },
  "userdoc": {
    "kind": "user",
    "methods": {},
    "version": 1
  }
}