{
  "contractName": "RockPaperScissors",
  "abi": [
    {
      "inputs": [],
      "stateMutability": "nonpayable",
      "type": "constructor"
    },
    {
      "inputs": [],
      "name": "gameId",
      "outputs": [
        {
          "internalType": "uint256",
          "name": "",
          "type": "uint256"
        }
      ],
      "stateMutability": "view",
      "type": "function",
      "constant": true
    },
    {
      "inputs": [
        {
          "internalType": "uint256",
          "name": "",
          "type": "uint256"
        }
      ],
      "name": "games",
      "outputs": [
        {
          "internalType": "uint256",
          "name": "id",
          "type": "uint256"
        },
        {
          "internalType": "uint256",
          "name": "bet",
          "type": "uint256"
        },
        {
          "internalType": "enum RockPaperScissors.State",
          "name": "state",
          "type": "uint8"
        }
      ],
      "stateMutability": "view",
      "type": "function",
      "constant": true
    },
    {
      "inputs": [
        {
          "internalType": "uint256",
          "name": "",
          "type": "uint256"
        },
        {
          "internalType": "address",
          "name": "",
          "type": "address"
        }
      ],
      "name": "moves",
      "outputs": [
        {
          "internalType": "bytes32",
          "name": "hash",
          "type": "bytes32"
        },
        {
          "internalType": "uint256",
          "name": "value",
          "type": "uint256"
        }
      ],
      "stateMutability": "view",
      "type": "function",
      "constant": true
    },
    {
      "inputs": [
        {
          "internalType": "uint256",
          "name": "",
          "type": "uint256"
        }
      ],
      "name": "winningMoves",
      "outputs": [
        {
          "internalType": "uint256",
          "name": "",
          "type": "uint256"
        }
      ],
      "stateMutability": "view",
      "type": "function",
      "constant": true
    },
    {
      "inputs": [
        {
          "internalType": "address payable",
          "name": "participant",
          "type": "address"
        }
      ],
      "name": "createGame",
      "outputs": [],
      "stateMutability": "payable",
      "type": "function",
      "payable": true
    },
    {
      "inputs": [
        {
          "internalType": "uint256",
          "name": "_gameId",
          "type": "uint256"
        }
      ],
      "name": "joinGame",
      "outputs": [],
      "stateMutability": "payable",
      "type": "function",
      "payable": true
    },
    {
      "inputs": [
        {
          "internalType": "uint256",
          "name": "_gameId",
          "type": "uint256"
        },
        {
          "internalType": "uint256",
          "name": "moveId",
          "type": "uint256"
        },
        {
          "internalType": "uint256",
          "name": "salt",
          "type": "uint256"
        }
      ],
      "name": "commitMove",
      "outputs": [],
      "stateMutability": "nonpayable",
      "type": "function"
    },
    {
      "inputs": [
        {
          "internalType": "uint256",
          "name": "_gameId",
          "type": "uint256"
        },
        {
          "internalType": "uint256",
          "name": "moveId",
          "type": "uint256"
        },
        {
          "internalType": "uint256",
          "name": "salt",
          "type": "uint256"
        }
      ],
      "name": "revealMove",
      "outputs": [],
      "stateMutability": "nonpayable",
      "type": "function"
    }
  ],
  "bytecode": "0x608060405234801561001057600080fd5b506003600260006001815260200190815260200160002081905550600160026000600281526020019081526020016000208190555060028060006003815260200190815260200160002081905550611b868061006d6000396000f3fe60806040526004361061007b5760003560e01c8063474d0b5a1161004e578063474d0b5a1461014f5780634b4cbb451461016b578063d7c81b55146101a8578063efaa55a0146101d35761007b565b8063117a5b901461008057806322337a88146100bf57806334d3ce4b146100fd578063354fe54a14610126575b600080fd5b34801561008c57600080fd5b506100a760048036038101906100a2919061128e565b6101ef565b6040516100b693929190611341565b60405180910390f35b3480156100cb57600080fd5b506100e660048036038101906100e191906113d6565b610226565b6040516100f492919061142f565b60405180910390f35b34801561010957600080fd5b50610124600480360381019061011f9190611458565b610257565b005b34801561013257600080fd5b5061014d60048036038101906101489190611458565b610718565b005b610169600480360381019061016491906114e9565b610d7d565b005b34801561017757600080fd5b50610192600480360381019061018d919061128e565b610f76565b60405161019f9190611516565b60405180910390f35b3480156101b457600080fd5b506101bd610f8e565b6040516101ca9190611516565b60405180910390f35b6101ed60048036038101906101e8919061128e565b610f94565b005b60006020528060005260406000206000915090508060000154908060010154908060030160009054906101000a900460ff16905083565b6001602052816000526040600020602052806000526040600020600091509150508060000154908060010154905082565b6000806000858152602001908152602001600020905060016003811115610281576102806112ca565b5b8160030160009054906101000a900460ff1660038111156102a5576102a46112ca565b5b146102e5576040517f08c379a00000000000000000000000000000000000000000000000000000000081526004016102dc9061158e565b60405180910390fd5b806002016000815481106102fc576102fb6115ae565b5b9060005260206000200160009054906101000a900473ffffffffffffffffffffffffffffffffffffffff1673ffffffffffffffffffffffffffffffffffffffff163373ffffffffffffffffffffffffffffffffffffffff1614806103cc575080600201600181548110610372576103716115ae565b5b9060005260206000200160009054906101000a900473ffffffffffffffffffffffffffffffffffffffff1673ffffffffffffffffffffffffffffffffffffffff163373ffffffffffffffffffffffffffffffffffffffff16145b61040b576040517f08c379a00000000000000000000000000000000000000000000000000000000081526004016104029061164f565b60405180910390fd5b6000801b6001600086815260200190815260200160002060003373ffffffffffffffffffffffffffffffffffffffff1673ffffffffffffffffffffffffffffffffffffffff16815260200190815260200160002060000154146104a3576040517f08c379a000000000000000000000000000000000000000000000000000000000815260040161049a906116bb565b60405180910390fd5b60018314806104b25750600283145b806104bd5750600383145b6104fc576040517f08c379a00000000000000000000000000000000000000000000000000000000081526004016104f390611727565b60405180910390fd5b6040518060400160405280848460405160200161051a929190611768565b60405160208183030381529060405280519060200120815260200160008152506001600086815260200190815260200160002060003373ffffffffffffffffffffffffffffffffffffffff1673ffffffffffffffffffffffffffffffffffffffff16815260200190815260200160002060008201518160000155602082015181600101559050506000801b600160008681526020019081526020016000206000836002016000815481106105d1576105d06115ae565b5b9060005260206000200160009054906101000a900473ffffffffffffffffffffffffffffffffffffffff1673ffffffffffffffffffffffffffffffffffffffff1673ffffffffffffffffffffffffffffffffffffffff16815260200190815260200160002060000154141580156106df57506000801b60016000868152602001908152602001600020600083600201600181548110610673576106726115ae565b5b9060005260206000200160009054906101000a900473ffffffffffffffffffffffffffffffffffffffff1673ffffffffffffffffffffffffffffffffffffffff1673ffffffffffffffffffffffffffffffffffffffff1681526020019081526020016000206000015414155b156107125760028160030160006101000a81548160ff0219169083600381111561070c5761070b6112ca565b5b02179055505b50505050565b6000806000858152602001908152602001600020905060006001600086815260200190815260200160002060008360020160008154811061075c5761075b6115ae565b5b9060005260206000200160009054906101000a900473ffffffffffffffffffffffffffffffffffffffff1673ffffffffffffffffffffffffffffffffffffffff1673ffffffffffffffffffffffffffffffffffffffff16815260200190815260200160002090506000600160008781526020019081526020016000206000846002016001815481106107f1576107f06115ae565b5b9060005260206000200160009054906101000a900473ffffffffffffffffffffffffffffffffffffffff1673ffffffffffffffffffffffffffffffffffffffff1673ffffffffffffffffffffffffffffffffffffffff168152602001908152602001600020905060006001600088815260200190815260200160002060003373ffffffffffffffffffffffffffffffffffffffff1673ffffffffffffffffffffffffffffffffffffffff1681526020019081526020016000209050600260038111156108c0576108bf6112ca565b5b8460030160009054906101000a900460ff1660038111156108e4576108e36112ca565b5b14610924576040517f08c379a000000000000000000000000000000000000000000000000000000000815260040161091b906117e0565b60405180910390fd5b8360020160008154811061093b5761093a6115ae565b5b9060005260206000200160009054906101000a900473ffffffffffffffffffffffffffffffffffffffff1673ffffffffffffffffffffffffffffffffffffffff163373ffffffffffffffffffffffffffffffffffffffff161480610a0b5750836002016001815481106109b1576109b06115ae565b5b9060005260206000200160009054906101000a900473ffffffffffffffffffffffffffffffffffffffff1673ffffffffffffffffffffffffffffffffffffffff163373ffffffffffffffffffffffffffffffffffffffff16145b610a4a576040517f08c379a0000000000000000000000000000000000000000000000000000000008152600401610a419061164f565b60405180910390fd5b8585604051602001610a5d929190611768565b60405160208183030381529060405280519060200120816000015414610ab8576040517f08c379a0000000000000000000000000000000000000000000000000000000008152600401610aaf9061184c565b60405180910390fd5b8581600101819055506000836001015414158015610adb57506000826001015414155b15610d73578160010154836001015403610c3d5783600201600081548110610b0657610b056115ae565b5b9060005260206000200160009054906101000a900473ffffffffffffffffffffffffffffffffffffffff1673ffffffffffffffffffffffffffffffffffffffff166108fc85600101549081150290604051600060405180830381858888f19350505050158015610b7a573d6000803e3d6000fd5b5083600201600181548110610b9257610b916115ae565b5b9060005260206000200160009054906101000a900473ffffffffffffffffffffffffffffffffffffffff1673ffffffffffffffffffffffffffffffffffffffff166108fc85600101549081150290604051600060405180830381858888f19350505050158015610c06573d6000803e3d6000fd5b5060038460030160006101000a81548160ff02191690836003811115610c2f57610c2e6112ca565b5b021790555050505050610d78565b6000826001015460026000866001015481526020019081526020016000205414610ca85784600201600181548110610c7857610c776115ae565b5b9060005260206000200160009054906101000a900473ffffffffffffffffffffffffffffffffffffffff16610ceb565b84600201600081548110610cbf57610cbe6115ae565b5b9060005260206000200160009054906101000a900473ffffffffffffffffffffffffffffffffffffffff165b90508073ffffffffffffffffffffffffffffffffffffffff166108fc86600101546002610d18919061189b565b9081150290604051600060405180830381858888f19350505050158015610d43573d6000803e3d6000fd5b5060038560030160006101000a81548160ff02191690836003811115610d6c57610d6b6112ca565b5b0217905550505b505050505b505050565b60003411610dc0576040517f08c379a0000000000000000000000000000000000000000000000000000000008152600401610db790611941565b60405180910390fd5b6000600267ffffffffffffffff811115610ddd57610ddc611961565b5b604051908082528060200260200182016040528015610e0b5781602001602082028036833780820191505090505b5090503381600081518110610e2357610e226115ae565b5b602002602001019073ffffffffffffffffffffffffffffffffffffffff16908173ffffffffffffffffffffffffffffffffffffffff16815250508181600181518110610e7257610e716115ae565b5b602002602001019073ffffffffffffffffffffffffffffffffffffffff16908173ffffffffffffffffffffffffffffffffffffffff16815250506040518060800160405280600354815260200134815260200182815260200160006003811115610edf57610ede6112ca565b5b815250600080600354815260200190815260200160002060008201518160000155602082015181600101556040820151816002019080519060200190610f269291906111ac565b5060608201518160030160006101000a81548160ff02191690836003811115610f5257610f516112ca565b5b021790555090505060036000815480929190610f6d90611990565b91905055505050565b60026020528060005260406000206000915090505481565b60035481565b6000806000838152602001908152602001600020905080600201600181548110610fc157610fc06115ae565b5b9060005260206000200160009054906101000a900473ffffffffffffffffffffffffffffffffffffffff1673ffffffffffffffffffffffffffffffffffffffff163373ffffffffffffffffffffffffffffffffffffffff1614611059576040517f08c379a000000000000000000000000000000000000000000000000000000000815260040161105090611a24565b60405180910390fd5b80600101543410156110a0576040517f08c379a000000000000000000000000000000000000000000000000000000000815260040161109790611a90565b60405180910390fd5b600060038111156110b4576110b36112ca565b5b8160030160009054906101000a900460ff1660038111156110d8576110d76112ca565b5b14611118576040517f08c379a000000000000000000000000000000000000000000000000000000000815260040161110f90611afc565b60405180910390fd5b806001015434111561117b573373ffffffffffffffffffffffffffffffffffffffff166108fc82600101543461114e9190611b1c565b9081150290604051600060405180830381858888f19350505050158015611179573d6000803e3d6000fd5b505b60018160030160006101000a81548160ff021916908360038111156111a3576111a26112ca565b5b02179055505050565b828054828255906000526020600020908101928215611225579160200282015b828111156112245782518260006101000a81548173ffffffffffffffffffffffffffffffffffffffff021916908373ffffffffffffffffffffffffffffffffffffffff160217905550916020019190600101906111cc565b5b5090506112329190611236565b5090565b5b8082111561124f576000816000905550600101611237565b5090565b600080fd5b6000819050919050565b61126b81611258565b811461127657600080fd5b50565b60008135905061128881611262565b92915050565b6000602082840312156112a4576112a3611253565b5b60006112b284828501611279565b91505092915050565b6112c481611258565b82525050565b7f4e487b7100000000000000000000000000000000000000000000000000000000600052602160045260246000fd5b6004811061130a576113096112ca565b5b50565b600081905061131b826112f9565b919050565b600061132b8261130d565b9050919050565b61133b81611320565b82525050565b600060608201905061135660008301866112bb565b61136360208301856112bb565b6113706040830184611332565b949350505050565b600073ffffffffffffffffffffffffffffffffffffffff82169050919050565b60006113a382611378565b9050919050565b6113b381611398565b81146113be57600080fd5b50565b6000813590506113d0816113aa565b92915050565b600080604083850312156113ed576113ec611253565b5b60006113fb85828601611279565b925050602061140c858286016113c1565b9150509250929050565b6000819050919050565b61142981611416565b82525050565b60006040820190506114446000830185611420565b61145160208301846112bb565b9392505050565b60008060006060848603121561147157611470611253565b5b600061147f86828701611279565b935050602061149086828701611279565b92505060406114a186828701611279565b9150509250925092565b60006114b682611378565b9050919050565b6114c6816114ab565b81146114d157600080fd5b50565b6000813590506114e3816114bd565b92915050565b6000602082840312156114ff576114fe611253565b5b600061150d848285016114d4565b91505092915050565b600060208201905061152b60008301846112bb565b92915050565b600082825260208201905092915050565b7f67616d65206d75737420626520696e204a4f494e454420737461746500000000600082015250565b6000611578601c83611531565b915061158382611542565b602082019050919050565b600060208201905081810360008301526115a78161156b565b9050919050565b7f4e487b7100000000000000000000000000000000000000000000000000000000600052603260045260246000fd5b7f63616e206f6e6c792062652063616c6c6564206279206f6e65206f6620706c6160008201527f7965727300000000000000000000000000000000000000000000000000000000602082015250565b6000611639602483611531565b9150611644826115dd565b604082019050919050565b600060208201905081810360008301526116688161162c565b9050919050565b7f6d6f766520616c7265616479206d616465000000000000000000000000000000600082015250565b60006116a5601183611531565b91506116b08261166f565b602082019050919050565b600060208201905081810360008301526116d481611698565b9050919050565b7f6d6f7665206e6565647320746f20626520312c2032206f722033000000000000600082015250565b6000611711601a83611531565b915061171c826116db565b602082019050919050565b6000602082019050818103600083015261174081611704565b9050919050565b6000819050919050565b61176261175d82611258565b611747565b82525050565b60006117748285611751565b6020820191506117848284611751565b6020820191508190509392505050565b7f67616d65206d75737420626520696e20434f4d4d495445442073746174650000600082015250565b60006117ca601e83611531565b91506117d582611794565b602082019050919050565b600060208201905081810360008301526117f9816117bd565b9050919050565b7f6d6f7665496420646f6573206e6f74206d6174636820636f6d6d69746d656e74600082015250565b6000611836602083611531565b915061184182611800565b602082019050919050565b6000602082019050818103600083015261186581611829565b9050919050565b7f4e487b7100000000000000000000000000000000000000000000000000000000600052601160045260246000fd5b60006118a682611258565b91506118b183611258565b9250817fffffffffffffffffffffffffffffffffffffffffffffffffffffffffffffffff04831182151516156118ea576118e961186c565b5b828202905092915050565b7f6861766520746f2073656e6420736f6d65206574686572000000000000000000600082015250565b600061192b601783611531565b9150611936826118f5565b602082019050919050565b6000602082019050818103600083015261195a8161191e565b9050919050565b7f4e487b7100000000000000000000000000000000000000000000000000000000600052604160045260246000fd5b600061199b82611258565b91507fffffffffffffffffffffffffffffffffffffffffffffffffffffffffffffffff82036119cd576119cc61186c565b5b600182019050919050565b7f73656e646572206d757374206265207365636f6e6420706c6179657200000000600082015250565b6000611a0e601c83611531565b9150611a19826119d8565b602082019050919050565b60006020820190508181036000830152611a3d81611a01565b9050919050565b7f6e6f7420656e6f7567682065746865722073656e740000000000000000000000600082015250565b6000611a7a601583611531565b9150611a8582611a44565b602082019050919050565b60006020820190508181036000830152611aa981611a6d565b9050919050565b7f67616d65206d75737420626520696e2043524541544544207374617465000000600082015250565b6000611ae6601d83611531565b9150611af182611ab0565b602082019050919050565b60006020820190508181036000830152611b1581611ad9565b9050919050565b6000611b2782611258565b9150611b3283611258565b925082821015611b4557611b4461186c565b5b82820390509291505056fea26469706673582212201fddea49ec22de61de9db05bbf2536a288a2227257273a3ba845281c0d39d67464736f6c634300080d0033",
  "immutableReferences": {},
  "source": "// SPDX-License-Identifier: GPL-3.0\npragma solidity ^0.8.13;\n\ncontract RockPaperScissors {\n  enum State {\n    CREATED,\n    JOINED,\n    COMMITED,\n    REVEALED\n  }  \n  struct Game {\n    uint id;\n    uint bet;\n    address payable[] players;\n    State state;\n  } \n  struct Move {\n    bytes32 hash;\n    uint value;\n  }\n  mapping(uint => Game) public games;\n  mapping(uint => mapping(address => Move)) public moves;\n  mapping(uint => uint) public winningMoves;\n  uint public gameId;\n  \n  constructor() {\n    winningMoves[1] = 3;\n    winningMoves[2] = 1;\n    winningMoves[3] = 2;\n  }\n  \n  function createGame(address payable participant) external payable {\n    require(msg.value > 0, 'have to send some ether');\n    address payable[] memory players = new address payable[](2);\n    players[0] = payable(msg.sender);\n    players[1] = participant;\n\n    games[gameId] = Game(\n      gameId, \n      msg.value,\n      players,\n      State.CREATED\n    );\n    gameId++;\n  }\n  \n  function joinGame(uint _gameId) external payable {\n    Game storage game = games[_gameId];\n    require(msg.sender == game.players[1], 'sender must be second player'); //also throw if game does not exist\n    require(msg.value >= game.bet, 'not enough ether sent');\n    require(game.state == State.CREATED, 'game must be in CREATED state');\n    if(msg.value > game.bet) {\n      payable(msg.sender).transfer(msg.value - game.bet);\n    }\n    game.state = State.JOINED;\n  }\n  \n  function commitMove(uint _gameId, uint moveId, uint salt) external {\n    Game storage game = games[_gameId];\n    require(game.state == State.JOINED, 'game must be in JOINED state');\n    require(msg.sender == game.players[0] || msg.sender == game.players[1], 'can only be called by one of players');\n    require(moves[_gameId][msg.sender].hash == 0, 'move already made'); // if no move yet, it will default to 0\n    require(moveId == 1 || moveId == 2 || moveId == 3, 'move needs to be 1, 2 or 3');\n    moves[_gameId][msg.sender] = Move(keccak256(abi.encodePacked(moveId, salt)), 0);\n    if(moves[_gameId][game.players[0]].hash != 0 \n      && moves[_gameId][game.players[1]].hash != 0) {\n      game.state = State.COMMITED;    \n    }\n  }\n  \n  function revealMove(uint _gameId, uint moveId, uint salt) external {\n    Game storage game = games[_gameId];\n    Move storage move1 = moves[_gameId][game.players[0]];\n    Move storage move2 = moves[_gameId][game.players[1]];\n    Move storage moveSender = moves[_gameId][msg.sender];\n    require(game.state == State.COMMITED, 'game must be in COMMITED state');\n    require(msg.sender == game.players[0] || msg.sender == game.players[1], 'can only be called by one of players');\n    require(moveSender.hash == keccak256(abi.encodePacked(moveId, salt)), 'moveId does not match commitment');\n    moveSender.value = moveId;\n    if(move1.value != 0 \n      && move2.value != 0) {\n        if(move1.value == move2.value) {\n          game.players[0].transfer(game.bet);\n          game.players[1].transfer(game.bet);\n          game.state = State.REVEALED;\n          return;\n        }\n        address payable winner;\n        winner = winningMoves[move1.value] == move2.value ? game.players[0] : game.players[1];\n        winner.transfer(2* game.bet);\n        game.state = State.REVEALED;\n    }  \n  }\n}\n",
  "sourcePath": "/Users/yuriikhomych/Projects/dapp-30/day20-rock-paper-scissors/frontend/contracts/RockPaperScissors.sol",
  "compiler": {
    "name": "solc",
    "version": "0.8.13+commit.abaa5c0e.Emscripten.clang"
  },
  "schemaVersion": "3.4.7",
  "updatedAt": "2022-06-29T06:03:47.486Z",
  "networkType": "ethereum",
  "devdoc": {
    "kind": "dev",
    "methods": {},
    "version": 1
  },
  "userdoc": {
    "kind": "user",
    "methods": {},
    "version": 1
  }
}