{
  "contractName": "Lottery",
  "abi": [
    {
      "inputs": [
        {
          "internalType": "uint256",
          "name": "fee",
          "type": "uint256"
        }
      ],
      "stateMutability": "nonpayable",
      "type": "constructor"
    },
    {
      "inputs": [],
      "name": "admin",
      "outputs": [
        {
          "internalType": "address",
          "name": "",
          "type": "address"
        }
      ],
      "stateMutability": "view",
      "type": "function",
      "constant": true
    },
    {
      "inputs": [],
      "name": "betCount",
      "outputs": [
        {
          "internalType": "uint256",
          "name": "",
          "type": "uint256"
        }
      ],
      "stateMutability": "view",
      "type": "function",
      "constant": true
    },
    {
      "inputs": [],
      "name": "betSize",
      "outputs": [
        {
          "internalType": "uint256",
          "name": "",
          "type": "uint256"
        }
      ],
      "stateMutability": "view",
      "type": "function",
      "constant": true
    },
    {
      "inputs": [],
      "name": "currentState",
      "outputs": [
        {
          "internalType": "enum Lottery.State",
          "name": "",
          "type": "uint8"
        }
      ],
      "stateMutability": "view",
      "type": "function",
      "constant": true
    },
    {
      "inputs": [],
      "name": "houseFee",
      "outputs": [
        {
          "internalType": "uint256",
          "name": "",
          "type": "uint256"
        }
      ],
      "stateMutability": "view",
      "type": "function",
      "constant": true
    },
    {
      "inputs": [
        {
          "internalType": "uint256",
          "name": "",
          "type": "uint256"
        }
      ],
      "name": "players",
      "outputs": [
        {
          "internalType": "address payable",
          "name": "",
          "type": "address"
        }
      ],
      "stateMutability": "view",
      "type": "function",
      "constant": true
    },
    {
      "inputs": [
        {
          "internalType": "uint256",
          "name": "count",
          "type": "uint256"
        },
        {
          "internalType": "uint256",
          "name": "size",
          "type": "uint256"
        }
      ],
      "name": "createBet",
      "outputs": [],
      "stateMutability": "nonpayable",
      "type": "function"
    },
    {
      "inputs": [],
      "name": "bet",
      "outputs": [],
      "stateMutability": "payable",
      "type": "function",
      "payable": true
    },
    {
      "inputs": [],
      "name": "cancel",
      "outputs": [],
      "stateMutability": "nonpayable",
      "type": "function"
    }
  ],
  "bytecode": "0x60806040526000600160006101000a81548160ff021916908360018111156200002d576200002c62000107565b5b02179055503480156200003f57600080fd5b506040516200107138038062001071833981810160405281019062000065919062000176565b600181118015620000765750606381105b620000b8576040517f08c379a0000000000000000000000000000000000000000000000000000000008152600401620000af9062000209565b60405180910390fd5b33600560006101000a81548173ffffffffffffffffffffffffffffffffffffffff021916908373ffffffffffffffffffffffffffffffffffffffff16021790555080600481905550506200022b565b7f4e487b7100000000000000000000000000000000000000000000000000000000600052602160045260246000fd5b600080fd5b6000819050919050565b62000150816200013b565b81146200015c57600080fd5b50565b600081519050620001708162000145565b92915050565b6000602082840312156200018f576200018e62000136565b5b60006200019f848285016200015f565b91505092915050565b600082825260208201905092915050565b7f6665652073686f756c64206265206265747765656e203120616e642039390000600082015250565b6000620001f1601e83620001a8565b9150620001fe82620001b9565b602082019050919050565b600060208201905081810360008301526200022481620001e2565b9050919050565b610e36806200023b6000396000f3fe6080604052600436106100865760003560e01c8063cf09449711610059578063cf09449714610116578063ea8a1af014610141578063f71d96cb14610158578063f851a44014610195578063fff058e6146101c057610086565b80630c3f6acf1461008b5780630ed469b8146100b657806311610c25146100e15780635d1d3e26146100eb575b600080fd5b34801561009757600080fd5b506100a06101e9565b6040516100ad91906108c8565b60405180910390f35b3480156100c257600080fd5b506100cb6101fc565b6040516100d891906108fc565b60405180910390f35b6100e9610202565b005b3480156100f757600080fd5b50610100610432565b60405161010d91906108fc565b60405180910390f35b34801561012257600080fd5b5061012b610438565b60405161013891906108fc565b60405180910390f35b34801561014d57600080fd5b5061015661043e565b005b34801561016457600080fd5b5061017f600480360381019061017a9190610948565b61062a565b60405161018c91906109b6565b60405180910390f35b3480156101a157600080fd5b506101aa610669565b6040516101b791906109f2565b60405180910390f35b3480156101cc57600080fd5b506101e760048036038101906101e29190610a0d565b61068f565b005b600160009054906101000a900460ff1681565b60045481565b60018060009054906101000a900460ff16600181111561022557610224610851565b5b81600181111561023857610237610851565b5b14610278576040517f08c379a000000000000000000000000000000000000000000000000000000000815260040161026f90610ad0565b60405180910390fd5b60035434146102bc576040517f08c379a00000000000000000000000000000000000000000000000000000000081526004016102b390610b62565b60405180910390fd5b6000339080600181540180825580915050600190039060005260206000200160009091909190916101000a81548173ffffffffffffffffffffffffffffffffffffffff021916908373ffffffffffffffffffffffffffffffffffffffff1602179055506002546000805490500361042f57600061033a6002546107d3565b9050600081815481106103505761034f610b82565b5b9060005260206000200160009054906101000a900473ffffffffffffffffffffffffffffffffffffffff1673ffffffffffffffffffffffffffffffffffffffff166108fc606460045460646103a59190610be0565b6002546003546103b59190610c14565b6103bf9190610c14565b6103c99190610c9d565b9081150290604051600060405180830381858888f193505050501580156103f4573d6000803e3d6000fd5b506000600160006101000a81548160ff0219169083600181111561041b5761041a610851565b5b021790555060008061042d9190610813565b505b50565b60035481565b60025481565b60018060009054906101000a900460ff16600181111561046157610460610851565b5b81600181111561047457610473610851565b5b146104b4576040517f08c379a00000000000000000000000000000000000000000000000000000000081526004016104ab90610ad0565b60405180910390fd5b600560009054906101000a900473ffffffffffffffffffffffffffffffffffffffff1673ffffffffffffffffffffffffffffffffffffffff163373ffffffffffffffffffffffffffffffffffffffff1614610544576040517f08c379a000000000000000000000000000000000000000000000000000000000815260040161053b90610d1a565b60405180910390fd5b60005b6000805490508110156105ee576000818154811061056857610567610b82565b5b9060005260206000200160009054906101000a900473ffffffffffffffffffffffffffffffffffffffff1673ffffffffffffffffffffffffffffffffffffffff166108fc6003549081150290604051600060405180830381858888f193505050501580156105da573d6000803e3d6000fd5b5080806105e690610d3a565b915050610547565b506000806105fc9190610813565b6000600160006101000a81548160ff0219169083600181111561062257610621610851565b5b021790555050565b6000818154811061063a57600080fd5b906000526020600020016000915054906101000a900473ffffffffffffffffffffffffffffffffffffffff1681565b600560009054906101000a900473ffffffffffffffffffffffffffffffffffffffff1681565b6000600160009054906101000a900460ff1660018111156106b3576106b2610851565b5b8160018111156106c6576106c5610851565b5b14610706576040517f08c379a00000000000000000000000000000000000000000000000000000000081526004016106fd90610ad0565b60405180910390fd5b600560009054906101000a900473ffffffffffffffffffffffffffffffffffffffff1673ffffffffffffffffffffffffffffffffffffffff163373ffffffffffffffffffffffffffffffffffffffff1614610796576040517f08c379a000000000000000000000000000000000000000000000000000000000815260040161078d90610d1a565b60405180910390fd5b826002819055508160038190555060018060006101000a81548160ff021916908360018111156107c9576107c8610851565b5b0217905550505050565b60008142446040516020016107e9929190610da3565b6040516020818303038152906040528051906020012060001c61080c9190610dcf565b9050919050565b50805460008255906000526020600020908101906108319190610834565b50565b5b8082111561084d576000816000905550600101610835565b5090565b7f4e487b7100000000000000000000000000000000000000000000000000000000600052602160045260246000fd5b6002811061089157610890610851565b5b50565b60008190506108a282610880565b919050565b60006108b282610894565b9050919050565b6108c2816108a7565b82525050565b60006020820190506108dd60008301846108b9565b92915050565b6000819050919050565b6108f6816108e3565b82525050565b600060208201905061091160008301846108ed565b92915050565b600080fd5b610925816108e3565b811461093057600080fd5b50565b6000813590506109428161091c565b92915050565b60006020828403121561095e5761095d610917565b5b600061096c84828501610933565b91505092915050565b600073ffffffffffffffffffffffffffffffffffffffff82169050919050565b60006109a082610975565b9050919050565b6109b081610995565b82525050565b60006020820190506109cb60008301846109a7565b92915050565b60006109dc82610975565b9050919050565b6109ec816109d1565b82525050565b6000602082019050610a0760008301846109e3565b92915050565b60008060408385031215610a2457610a23610917565b5b6000610a3285828601610933565b9250506020610a4385828601610933565b9150509250929050565b600082825260208201905092915050565b7f63757272656e7420737461746520646f6573206e6f7420616c6c6f772074686960008201527f7300000000000000000000000000000000000000000000000000000000000000602082015250565b6000610aba602183610a4d565b9150610ac582610a5e565b604082019050919050565b60006020820190508181036000830152610ae981610aad565b9050919050565b7f63616e206f6e6c79206265742065786163746c7920746865206265742073697a60008201527f6500000000000000000000000000000000000000000000000000000000000000602082015250565b6000610b4c602183610a4d565b9150610b5782610af0565b604082019050919050565b60006020820190508181036000830152610b7b81610b3f565b9050919050565b7f4e487b7100000000000000000000000000000000000000000000000000000000600052603260045260246000fd5b7f4e487b7100000000000000000000000000000000000000000000000000000000600052601160045260246000fd5b6000610beb826108e3565b9150610bf6836108e3565b925082821015610c0957610c08610bb1565b5b828203905092915050565b6000610c1f826108e3565b9150610c2a836108e3565b9250817fffffffffffffffffffffffffffffffffffffffffffffffffffffffffffffffff0483118215151615610c6357610c62610bb1565b5b828202905092915050565b7f4e487b7100000000000000000000000000000000000000000000000000000000600052601260045260246000fd5b6000610ca8826108e3565b9150610cb3836108e3565b925082610cc357610cc2610c6e565b5b828204905092915050565b7f6f6e6c792061646d696e00000000000000000000000000000000000000000000600082015250565b6000610d04600a83610a4d565b9150610d0f82610cce565b602082019050919050565b60006020820190508181036000830152610d3381610cf7565b9050919050565b6000610d45826108e3565b91507fffffffffffffffffffffffffffffffffffffffffffffffffffffffffffffffff8203610d7757610d76610bb1565b5b600182019050919050565b6000819050919050565b610d9d610d98826108e3565b610d82565b82525050565b6000610daf8285610d8c565b602082019150610dbf8284610d8c565b6020820191508190509392505050565b6000610dda826108e3565b9150610de5836108e3565b925082610df557610df4610c6e565b5b82820690509291505056fea2646970667358221220d340e95c8b11db8d3bb73c7f821c05e98e0e64f8cdd8022923d1f2d6f04ca3f764736f6c634300080d0033",
  "immutableReferences": {},
  "source": "// SPDX-License-Identifier: GPL-3.0\npragma solidity ^0.8.13;\n\ncontract Lottery {\n    enum State {\n        IDLE,\n        BETTING\n    }\n    address payable[] public players;\n    State public currentState = State.IDLE;\n    uint public betCount;\n    uint public betSize;\n    uint public houseFee;\n    address public admin;\n    \n    constructor(uint fee) {\n        require(fee > 1 && fee < 99, 'fee should be between 1 and 99');\n        admin = msg.sender;\n        houseFee = fee;\n    }\n    \n    function createBet(uint count, uint size) \n        external \n        inState(State.IDLE) \n        onlyAdmin() {\n        betCount = count;\n        betSize = size;\n        currentState = State.BETTING;\n    }\n    \n    function bet() \n        external \n        payable \n        inState(State.BETTING) {\n        require(msg.value == betSize, 'can only bet exactly the bet size');\n        players.push(payable(msg.sender));\n        if(players.length == betCount ) {\n            uint winner = _randomModulo(betCount);\n            players[winner].transfer((betSize * betCount) * (100 - houseFee) / 100);\n            currentState = State.IDLE;\n            delete players;\n        }\n    }\n    \n    function cancel() \n        external \n        inState(State.BETTING) \n        onlyAdmin() {\n        for(uint i = 0; i < players.length; i++) {\n            players[i].transfer(betSize);\n        }\n        delete players;\n        currentState = State.IDLE;\n    }\n    \n    function _randomModulo(uint modulo) view internal returns(uint) {\n        return uint(keccak256(abi.encodePacked(block.timestamp, block.difficulty))) % modulo;\n    }\n    \n    modifier inState(State state) {\n        require(state == currentState, 'current state does not allow this');\n        _;\n    }\n    \n    modifier onlyAdmin() {\n        require(msg.sender == admin, 'only admin');\n        _;\n    }\n}\n",
  "sourcePath": "/Users/yuriikhomych/Projects/dapp-30/day18-lottery/frontend/contracts/Lottery.sol",
  "compiler": {
    "name": "solc",
    "version": "0.8.13+commit.abaa5c0e.Emscripten.clang"
  },
  "schemaVersion": "3.4.7",
  "updatedAt": "2022-06-26T19:26:45.750Z",
  "networkType": "ethereum",
  "devdoc": {
    "kind": "dev",
    "methods": {},
    "version": 1
  },
  "userdoc": {
    "kind": "user",
    "methods": {},
    "version": 1
  }
}