{
  "contractName": "StateMachine",
  "abi": [
    {
      "inputs": [
        {
          "internalType": "uint256",
          "name": "_amount",
          "type": "uint256"
        },
        {
          "internalType": "uint256",
          "name": "_interest",
          "type": "uint256"
        },
        {
          "internalType": "uint256",
          "name": "_duration",
          "type": "uint256"
        },
        {
          "internalType": "address payable",
          "name": "_borrower",
          "type": "address"
        },
        {
          "internalType": "address payable",
          "name": "_lender",
          "type": "address"
        }
      ],
      "stateMutability": "nonpayable",
      "type": "constructor"
    },
    {
      "inputs": [],
      "name": "amount",
      "outputs": [
        {
          "internalType": "uint256",
          "name": "",
          "type": "uint256"
        }
      ],
      "stateMutability": "view",
      "type": "function",
      "constant": true
    },
    {
      "inputs": [],
      "name": "borrower",
      "outputs": [
        {
          "internalType": "address payable",
          "name": "",
          "type": "address"
        }
      ],
      "stateMutability": "view",
      "type": "function",
      "constant": true
    },
    {
      "inputs": [],
      "name": "duration",
      "outputs": [
        {
          "internalType": "uint256",
          "name": "",
          "type": "uint256"
        }
      ],
      "stateMutability": "view",
      "type": "function",
      "constant": true
    },
    {
      "inputs": [],
      "name": "end",
      "outputs": [
        {
          "internalType": "uint256",
          "name": "",
          "type": "uint256"
        }
      ],
      "stateMutability": "view",
      "type": "function",
      "constant": true
    },
    {
      "inputs": [],
      "name": "interest",
      "outputs": [
        {
          "internalType": "uint256",
          "name": "",
          "type": "uint256"
        }
      ],
      "stateMutability": "view",
      "type": "function",
      "constant": true
    },
    {
      "inputs": [],
      "name": "lender",
      "outputs": [
        {
          "internalType": "address payable",
          "name": "",
          "type": "address"
        }
      ],
      "stateMutability": "view",
      "type": "function",
      "constant": true
    },
    {
      "inputs": [],
      "name": "state",
      "outputs": [
        {
          "internalType": "enum StateMachine.State",
          "name": "",
          "type": "uint8"
        }
      ],
      "stateMutability": "view",
      "type": "function",
      "constant": true
    },
    {
      "inputs": [],
      "name": "fund",
      "outputs": [],
      "stateMutability": "payable",
      "type": "function",
      "payable": true
    },
    {
      "inputs": [],
      "name": "reimburse",
      "outputs": [],
      "stateMutability": "payable",
      "type": "function",
      "payable": true
    }
  ],
  "bytecode": "0x608060405260008060006101000a81548160ff021916908360028111156200002c576200002b62000106565b5b02179055503480156200003e57600080fd5b506040516200105a3803806200105a8339818101604052810190620000649190620001da565b84600181905550836002819055508260048190555081600560006101000a81548173ffffffffffffffffffffffffffffffffffffffff021916908373ffffffffffffffffffffffffffffffffffffffff16021790555080600660006101000a81548173ffffffffffffffffffffffffffffffffffffffff021916908373ffffffffffffffffffffffffffffffffffffffff160217905550505050505062000262565b7f4e487b7100000000000000000000000000000000000000000000000000000000600052602160045260246000fd5b600080fd5b6000819050919050565b6200014f816200013a565b81146200015b57600080fd5b50565b6000815190506200016f8162000144565b92915050565b600073ffffffffffffffffffffffffffffffffffffffff82169050919050565b6000620001a28262000175565b9050919050565b620001b48162000195565b8114620001c057600080fd5b50565b600081519050620001d481620001a9565b92915050565b600080600080600060a08688031215620001f957620001f862000135565b5b600062000209888289016200015e565b95505060206200021c888289016200015e565b94505060406200022f888289016200015e565b93505060606200024288828901620001c3565b92505060806200025588828901620001c3565b9150509295509295909350565b610de880620002726000396000f3fe6080604052600436106100865760003560e01c8063bcead63e11610059578063bcead63e14610116578063c19d93fb14610141578063c392f7661461016c578063d3927c1514610197578063efbe1c1c146101a157610086565b80630fb5a6b41461008b5780637df1f1b9146100b6578063aa8c217c146100e1578063b60d42881461010c575b600080fd5b34801561009757600080fd5b506100a06101cc565b6040516100ad91906107d5565b60405180910390f35b3480156100c257600080fd5b506100cb6101d2565b6040516100d89190610831565b60405180910390f35b3480156100ed57600080fd5b506100f66101f8565b60405161010391906107d5565b60405180910390f35b6101146101fe565b005b34801561012257600080fd5b5061012b610349565b6040516101389190610831565b60405180910390f35b34801561014d57600080fd5b5061015661036f565b60405161016391906108c3565b60405180910390f35b34801561017857600080fd5b50610181610380565b60405161018e91906107d5565b60405180910390f35b61019f610386565b005b3480156101ad57600080fd5b506101b66104eb565b6040516101c391906107d5565b60405180910390f35b60045481565b600560009054906101000a900473ffffffffffffffffffffffffffffffffffffffff1681565b60015481565b600660009054906101000a900473ffffffffffffffffffffffffffffffffffffffff1673ffffffffffffffffffffffffffffffffffffffff163373ffffffffffffffffffffffffffffffffffffffff161461028e576040517f08c379a00000000000000000000000000000000000000000000000000000000081526004016102859061093b565b60405180910390fd5b60015447146102d2576040517f08c379a00000000000000000000000000000000000000000000000000000000081526004016102c9906109a7565b60405180910390fd5b6102dc60016104f1565b600560009054906101000a900473ffffffffffffffffffffffffffffffffffffffff1673ffffffffffffffffffffffffffffffffffffffff166108fc6001549081150290604051600060405180830381858888f19350505050158015610346573d6000803e3d6000fd5b50565b600660009054906101000a900473ffffffffffffffffffffffffffffffffffffffff1681565b60008054906101000a900460ff1681565b60025481565b600560009054906101000a900473ffffffffffffffffffffffffffffffffffffffff1673ffffffffffffffffffffffffffffffffffffffff163373ffffffffffffffffffffffffffffffffffffffff1614610416576040517f08c379a000000000000000000000000000000000000000000000000000000000815260040161040d90610a13565b60405180910390fd5b6002546001546104269190610a62565b3414610467576040517f08c379a000000000000000000000000000000000000000000000000000000000815260040161045e90610b2a565b60405180910390fd5b61047160026104f1565b600660009054906101000a900473ffffffffffffffffffffffffffffffffffffffff1673ffffffffffffffffffffffffffffffffffffffff166108fc6002546001546104bd9190610a62565b9081150290604051600060405180830381858888f193505050501580156104e8573d6000803e3d6000fd5b50565b60035481565b600060028111156105055761050461084c565b5b8160028111156105185761051761084c565b5b03610558576040517f08c379a000000000000000000000000000000000000000000000000000000000815260040161054f90610b96565b60405180910390fd5b60008054906101000a900460ff1660028111156105785761057761084c565b5b81600281111561058b5761058a61084c565b5b036105cb576040517f08c379a00000000000000000000000000000000000000000000000000000000081526004016105c290610c02565b60405180910390fd5b600160028111156105df576105de61084c565b5b8160028111156105f2576105f161084c565b5b036106aa576000600281111561060b5761060a61084c565b5b60008054906101000a900460ff16600281111561062b5761062a61084c565b5b1461066b576040517f08c379a000000000000000000000000000000000000000000000000000000000815260040161066290610c94565b60405180910390fd5b60016000806101000a81548160ff021916908360028111156106905761068f61084c565b5b0217905550600454426106a39190610a62565b6003819055505b6002808111156106bd576106bc61084c565b5b8160028111156106d0576106cf61084c565b5b036107b957600160028111156106e9576106e861084c565b5b60008054906101000a900460ff1660028111156107095761070861084c565b5b14610749576040517f08c379a000000000000000000000000000000000000000000000000000000000815260040161074090610d26565b60405180910390fd5b60035442101561078e576040517f08c379a000000000000000000000000000000000000000000000000000000000815260040161078590610d92565b60405180910390fd5b60026000806101000a81548160ff021916908360028111156107b3576107b261084c565b5b02179055505b50565b6000819050919050565b6107cf816107bc565b82525050565b60006020820190506107ea60008301846107c6565b92915050565b600073ffffffffffffffffffffffffffffffffffffffff82169050919050565b600061081b826107f0565b9050919050565b61082b81610810565b82525050565b60006020820190506108466000830184610822565b92915050565b7f4e487b7100000000000000000000000000000000000000000000000000000000600052602160045260246000fd5b6003811061088c5761088b61084c565b5b50565b600081905061089d8261087b565b919050565b60006108ad8261088f565b9050919050565b6108bd816108a2565b82525050565b60006020820190506108d860008301846108b4565b92915050565b600082825260208201905092915050565b7f6f6e6c79206c656e6465722063616e206c656e64000000000000000000000000600082015250565b60006109256014836108de565b9150610930826108ef565b602082019050919050565b6000602082019050818103600083015261095481610918565b9050919050565b7f63616e206f6e6c79206c656e642074686520657861637420616d6f756e740000600082015250565b6000610991601e836108de565b915061099c8261095b565b602082019050919050565b600060208201905081810360008301526109c081610984565b9050919050565b7f6f6e6c7920626f72726f7765722063616e207265696d62757273650000000000600082015250565b60006109fd601b836108de565b9150610a08826109c7565b602082019050919050565b60006020820190508181036000830152610a2c816109f0565b9050919050565b7f4e487b7100000000000000000000000000000000000000000000000000000000600052601160045260246000fd5b6000610a6d826107bc565b9150610a78836107bc565b9250827fffffffffffffffffffffffffffffffffffffffffffffffffffffffffffffffff03821115610aad57610aac610a33565b5b828201905092915050565b7f626f72726f776572206e65656420746f207265696d627572736520657861637460008201527f6c7920616d6f756e74202b20696e746572657374000000000000000000000000602082015250565b6000610b146034836108de565b9150610b1f82610ab8565b604082019050919050565b60006020820190508181036000830152610b4381610b07565b9050919050565b7f63616e6e6f7420676f206261636b20746f2070656e64696e6700000000000000600082015250565b6000610b806019836108de565b9150610b8b82610b4a565b602082019050919050565b60006020820190508181036000830152610baf81610b73565b9050919050565b7f63616e6e6f74207472616e736974696f6e20746f2073616d6520737461746500600082015250565b6000610bec601f836108de565b9150610bf782610bb6565b602082019050919050565b60006020820190508181036000830152610c1b81610bdf565b9050919050565b7f63616e6e6f74206f6e6c7920676f20746f206163746976652066726f6d20706560008201527f6e64696e67000000000000000000000000000000000000000000000000000000602082015250565b6000610c7e6025836108de565b9150610c8982610c22565b604082019050919050565b60006020820190508181036000830152610cad81610c71565b9050919050565b7f63616e6e6f74206f6e6c7920676f20746f20636c6f7365642066726f6d20616360008201527f7469766500000000000000000000000000000000000000000000000000000000602082015250565b6000610d106024836108de565b9150610d1b82610cb4565b604082019050919050565b60006020820190508181036000830152610d3f81610d03565b9050919050565b7f6c6f616e206861736e74206d6174757265642079657400000000000000000000600082015250565b6000610d7c6016836108de565b9150610d8782610d46565b602082019050919050565b60006020820190508181036000830152610dab81610d6f565b905091905056fea26469706673582212202fc2c716ba0233c1985f1ed06ea6f443a8db96c2231042bdd8b17c452606318064736f6c634300080d0033",
  "immutableReferences": {},
  "source": "// SPDX-License-Identifier: GPL-3.0\npragma solidity ^0.8.13;\n\ncontract StateMachine {\n    enum State {\n        PENDING,\n        ACTIVE,\n        CLOSED\n    }\n    State public state = State.PENDING;\n    uint public amount;\n    uint public interest;\n    uint public end;\n    uint public duration;\n    address payable public borrower;\n    address payable public lender;\n    \n    constructor(\n        uint _amount,\n        uint _interest,\n        uint _duration,\n        address payable _borrower,\n        address payable _lender\n        ) {\n        amount = _amount;\n        interest = _interest;\n        duration = _duration;\n        borrower = _borrower;\n        lender = _lender;\n    }\n    \n    function fund() payable external {\n        require(msg.sender == lender, 'only lender can lend');\n        require(address(this).balance == amount, 'can only lend the exact amount');\n        _transitionTo(State.ACTIVE);\n        borrower.transfer(amount);\n    }\n    \n    function reimburse() payable external {\n        require(msg.sender == borrower, 'only borrower can reimburse');\n        require(msg.value == amount + interest, 'borrower need to reimburse exactly amount + interest');\n        _transitionTo(State.CLOSED);\n        lender.transfer(amount + interest);\n    }\n\n    function _transitionTo(State to) internal {\n      require(to != State.PENDING, 'cannot go back to pending');\n      require(to != state, 'cannot transition to same state');\n      if(to == State.ACTIVE) {\n        require(state == State.PENDING, 'cannot only go to active from pending');\n        state = State.ACTIVE;\n        end = block.timestamp + duration;\n      }\n      if(to == State.CLOSED) {\n        require(state == State.ACTIVE, 'cannot only go to closed from active');\n        require(block.timestamp >= end, 'loan hasnt matured yet');\n        state = State.CLOSED;\n      }\n    }\n}\n",
  "sourcePath": "/Users/yuriikhomych/Projects/dapp-30/day16-loan-state-machine/frontend/contracts/StateMachine.sol",
  "compiler": {
    "name": "solc",
    "version": "0.8.13+commit.abaa5c0e.Emscripten.clang"
  },
  "schemaVersion": "3.4.7",
  "updatedAt": "2022-06-25T11:27:08.993Z",
  "networkType": "ethereum",
  "devdoc": {
    "kind": "dev",
    "methods": {},
    "version": 1
  },
  "userdoc": {
    "kind": "user",
    "methods": {},
    "version": 1
  }
}