{
  "contractName": "Voting",
  "abi": [
    {
      "inputs": [],
      "stateMutability": "nonpayable",
      "type": "constructor"
    },
    {
      "inputs": [],
      "name": "admin",
      "outputs": [
        {
          "internalType": "address",
          "name": "",
          "type": "address"
        }
      ],
      "stateMutability": "view",
      "type": "function",
      "constant": true
    },
    {
      "inputs": [
        {
          "internalType": "uint256",
          "name": "",
          "type": "uint256"
        }
      ],
      "name": "ballots",
      "outputs": [
        {
          "internalType": "uint256",
          "name": "id",
          "type": "uint256"
        },
        {
          "internalType": "string",
          "name": "name",
          "type": "string"
        },
        {
          "internalType": "uint256",
          "name": "end",
          "type": "uint256"
        }
      ],
      "stateMutability": "view",
      "type": "function",
      "constant": true
    },
    {
      "inputs": [
        {
          "internalType": "uint256",
          "name": "",
          "type": "uint256"
        },
        {
          "internalType": "uint256",
          "name": "",
          "type": "uint256"
        }
      ],
      "name": "choiceNames",
      "outputs": [
        {
          "internalType": "string",
          "name": "",
          "type": "string"
        }
      ],
      "stateMutability": "view",
      "type": "function",
      "constant": true
    },
    {
      "inputs": [],
      "name": "nextBallotId",
      "outputs": [
        {
          "internalType": "uint256",
          "name": "",
          "type": "uint256"
        }
      ],
      "stateMutability": "view",
      "type": "function",
      "constant": true
    },
    {
      "inputs": [
        {
          "internalType": "address",
          "name": "",
          "type": "address"
        }
      ],
      "name": "voters",
      "outputs": [
        {
          "internalType": "bool",
          "name": "",
          "type": "bool"
        }
      ],
      "stateMutability": "view",
      "type": "function",
      "constant": true
    },
    {
      "inputs": [
        {
          "internalType": "address",
          "name": "",
          "type": "address"
        },
        {
          "internalType": "uint256",
          "name": "",
          "type": "uint256"
        }
      ],
      "name": "votes",
      "outputs": [
        {
          "internalType": "bool",
          "name": "",
          "type": "bool"
        }
      ],
      "stateMutability": "view",
      "type": "function",
      "constant": true
    },
    {
      "inputs": [
        {
          "internalType": "address[]",
          "name": "_voters",
          "type": "address[]"
        }
      ],
      "name": "addVoters",
      "outputs": [],
      "stateMutability": "nonpayable",
      "type": "function"
    },
    {
      "inputs": [
        {
          "internalType": "string",
          "name": "name",
          "type": "string"
        },
        {
          "internalType": "string[]",
          "name": "_choices",
          "type": "string[]"
        },
        {
          "internalType": "uint256",
          "name": "offset",
          "type": "uint256"
        }
      ],
      "name": "createBallot",
      "outputs": [],
      "stateMutability": "nonpayable",
      "type": "function"
    },
    {
      "inputs": [
        {
          "internalType": "uint256",
          "name": "ballotId",
          "type": "uint256"
        },
        {
          "internalType": "uint256",
          "name": "choiceId",
          "type": "uint256"
        }
      ],
      "name": "vote",
      "outputs": [],
      "stateMutability": "nonpayable",
      "type": "function"
    },
    {
      "inputs": [
        {
          "internalType": "uint256",
          "name": "ballotId",
          "type": "uint256"
        }
      ],
      "name": "getChoiceNames",
      "outputs": [
        {
          "internalType": "string[]",
          "name": "",
          "type": "string[]"
        }
      ],
      "stateMutability": "view",
      "type": "function",
      "constant": true
    },
    {
      "inputs": [
        {
          "internalType": "uint256",
          "name": "ballotId",
          "type": "uint256"
        }
      ],
      "name": "results",
      "outputs": [
        {
          "components": [
            {
              "internalType": "uint256",
              "name": "id",
              "type": "uint256"
            },
            {
              "internalType": "string",
              "name": "name",
              "type": "string"
            },
            {
              "internalType": "uint256",
              "name": "votes",
              "type": "uint256"
            }
          ],
          "internalType": "struct Voting.Choice[]",
          "name": "",
          "type": "tuple[]"
        }
      ],
      "stateMutability": "view",
      "type": "function",
      "constant": true
    }
  ],
  "bytecode": "0x608060405234801561001057600080fd5b5033600460006101000a81548173ffffffffffffffffffffffffffffffffffffffff021916908373ffffffffffffffffffffffffffffffffffffffff160217905550611a84806100616000396000f3fe608060405234801561001057600080fd5b50600436106100a95760003560e01c80639f2524ee116100715780639f2524ee14610178578063a3ec138d146101a8578063b384abef146101d8578063b9ffca03146101f4578063dc6bfbb514610224578063f851a44014610242576100a9565b80631b0c27da146100ae57806320faae8e146100de5780635c632b38146100fa5780637073ea571461012c5780638203373a1461015c575b600080fd5b6100c860048036038101906100c39190610dea565b610260565b6040516100d59190610fd1565b60405180910390f35b6100f860048036038101906100f3919061120e565b6103d4565b005b610114600480360381019061010f9190610dea565b6105e9565b604051610123939291906112f2565b60405180910390f35b61014660048036038101906101419190610dea565b61069b565b60405161015391906113f2565b60405180910390f35b6101766004803603810190610171919061146f565b610787565b005b610192600480360381019061018d919061151a565b6108bb565b60405161019f9190611575565b60405180910390f35b6101c260048036038101906101bd9190611590565b6108ea565b6040516101cf9190611575565b60405180910390f35b6101f260048036038101906101ed91906115bd565b61090a565b005b61020e600480360381019061020991906115bd565b610b54565b60405161021b91906115fd565b60405180910390f35b61022c610c0d565b604051610239919061161f565b60405180910390f35b61024a610c13565b6040516102579190611649565b60405180910390f35b606060016000838152602001908152602001600020600301544210156102bb576040517f08c379a00000000000000000000000000000000000000000000000000000000081526004016102b2906116d6565b60405180910390fd5b60016000838152602001908152602001600020600201805480602002602001604051908101604052809291908181526020016000905b828210156103c957838290600052602060002090600302016040518060600160405290816000820154815260200160018201805461032e90611725565b80601f016020809104026020016040519081016040528092919081815260200182805461035a90611725565b80156103a75780601f1061037c576101008083540402835291602001916103a7565b820191906000526020600020905b81548152906001019060200180831161038a57829003601f168201915b50505050508152602001600282015481525050815260200190600101906102f1565b505050509050919050565b600460009054906101000a900473ffffffffffffffffffffffffffffffffffffffff1673ffffffffffffffffffffffffffffffffffffffff163373ffffffffffffffffffffffffffffffffffffffff1614610464576040517f08c379a000000000000000000000000000000000000000000000000000000000815260040161045b906117a2565b60405180910390fd5b600354600160006003548152602001908152602001600020600001819055508260016000600354815260200190815260200160002060010190805190602001906104af929190610c39565b5080426104bc91906117f1565b6001600060035481526020019081526020016000206003018190555060005b82518110156105a15760016000600354815260200190815260200160002060020160405180606001604052808381526020018584815181106105205761051f611847565b5b6020026020010151815260200160008152509080600181540180825580915050600190039060005260206000209060030201600090919091909150600082015181600001556020820151816001019080519060200190610581929190610c39565b50604082015181600201555050808061059990611876565b9150506104db565b508160026000600354815260200190815260200160002090805190602001906105cb929190610cbf565b50600360008154809291906105df90611876565b9190505550505050565b600160205280600052604060002060009150905080600001549080600101805461061290611725565b80601f016020809104026020016040519081016040528092919081815260200182805461063e90611725565b801561068b5780601f106106605761010080835404028352916020019161068b565b820191906000526020600020905b81548152906001019060200180831161066e57829003601f168201915b5050505050908060030154905083565b606060026000838152602001908152602001600020805480602002602001604051908101604052809291908181526020016000905b8282101561077c5783829060005260206000200180546106ef90611725565b80601f016020809104026020016040519081016040528092919081815260200182805461071b90611725565b80156107685780601f1061073d57610100808354040283529160200191610768565b820191906000526020600020905b81548152906001019060200180831161074b57829003601f168201915b5050505050815260200190600101906106d0565b505050509050919050565b600460009054906101000a900473ffffffffffffffffffffffffffffffffffffffff1673ffffffffffffffffffffffffffffffffffffffff163373ffffffffffffffffffffffffffffffffffffffff1614610817576040517f08c379a000000000000000000000000000000000000000000000000000000000815260040161080e906117a2565b60405180910390fd5b60005b828290508110156108b657600160008085858581811061083d5761083c611847565b5b90506020020160208101906108529190611590565b73ffffffffffffffffffffffffffffffffffffffff1673ffffffffffffffffffffffffffffffffffffffff16815260200190815260200160002060006101000a81548160ff02191690831515021790555080806108ae90611876565b91505061081a565b505050565b60056020528160005260406000206020528060005260406000206000915091509054906101000a900460ff1681565b60006020528060005260406000206000915054906101000a900460ff1681565b600115156000803373ffffffffffffffffffffffffffffffffffffffff1673ffffffffffffffffffffffffffffffffffffffff16815260200190815260200160002060009054906101000a900460ff1615151461099c576040517f08c379a00000000000000000000000000000000000000000000000000000000081526004016109939061190a565b60405180910390fd5b60001515600560003373ffffffffffffffffffffffffffffffffffffffff1673ffffffffffffffffffffffffffffffffffffffff168152602001908152602001600020600084815260200190815260200160002060009054906101000a900460ff16151514610a40576040517f08c379a0000000000000000000000000000000000000000000000000000000008152600401610a379061199c565b60405180910390fd5b60016000838152602001908152602001600020600301544210610a98576040517f08c379a0000000000000000000000000000000000000000000000000000000008152600401610a8f90611a2e565b60405180910390fd5b6001600560003373ffffffffffffffffffffffffffffffffffffffff1673ffffffffffffffffffffffffffffffffffffffff168152602001908152602001600020600084815260200190815260200160002060006101000a81548160ff021916908315150217905550600160008381526020019081526020016000206002018181548110610b2957610b28611847565b5b90600052602060002090600302016002016000815480929190610b4b90611876565b91905055505050565b60026020528160005260406000208181548110610b7057600080fd5b90600052602060002001600091509150508054610b8c90611725565b80601f0160208091040260200160405190810160405280929190818152602001828054610bb890611725565b8015610c055780601f10610bda57610100808354040283529160200191610c05565b820191906000526020600020905b815481529060010190602001808311610be857829003601f168201915b505050505081565b60035481565b600460009054906101000a900473ffffffffffffffffffffffffffffffffffffffff1681565b828054610c4590611725565b90600052602060002090601f016020900481019282610c675760008555610cae565b82601f10610c8057805160ff1916838001178555610cae565b82800160010185558215610cae579182015b82811115610cad578251825591602001919060010190610c92565b5b509050610cbb9190610d1f565b5090565b828054828255906000526020600020908101928215610d0e579160200282015b82811115610d0d578251829080519060200190610cfd929190610c39565b5091602001919060010190610cdf565b5b509050610d1b9190610d3c565b5090565b5b80821115610d38576000816000905550600101610d20565b5090565b5b80821115610d5c5760008181610d539190610d60565b50600101610d3d565b5090565b508054610d6c90611725565b6000825580601f10610d7e5750610d9d565b601f016020900490600052602060002090810190610d9c9190610d1f565b5b50565b6000604051905090565b600080fd5b600080fd5b6000819050919050565b610dc781610db4565b8114610dd257600080fd5b50565b600081359050610de481610dbe565b92915050565b600060208284031215610e0057610dff610daa565b5b6000610e0e84828501610dd5565b91505092915050565b600081519050919050565b600082825260208201905092915050565b6000819050602082019050919050565b610e4c81610db4565b82525050565b600081519050919050565b600082825260208201905092915050565b60005b83811015610e8c578082015181840152602081019050610e71565b83811115610e9b576000848401525b50505050565b6000601f19601f8301169050919050565b6000610ebd82610e52565b610ec78185610e5d565b9350610ed7818560208601610e6e565b610ee081610ea1565b840191505092915050565b6000606083016000830151610f036000860182610e43565b5060208301518482036020860152610f1b8282610eb2565b9150506040830151610f306040860182610e43565b508091505092915050565b6000610f478383610eeb565b905092915050565b6000602082019050919050565b6000610f6782610e17565b610f718185610e22565b935083602082028501610f8385610e33565b8060005b85811015610fbf5784840389528151610fa08582610f3b565b9450610fab83610f4f565b925060208a01995050600181019050610f87565b50829750879550505050505092915050565b60006020820190508181036000830152610feb8184610f5c565b905092915050565b600080fd5b600080fd5b7f4e487b7100000000000000000000000000000000000000000000000000000000600052604160045260246000fd5b61103582610ea1565b810181811067ffffffffffffffff8211171561105457611053610ffd565b5b80604052505050565b6000611067610da0565b9050611073828261102c565b919050565b600067ffffffffffffffff82111561109357611092610ffd565b5b61109c82610ea1565b9050602081019050919050565b82818337600083830152505050565b60006110cb6110c684611078565b61105d565b9050828152602081018484840111156110e7576110e6610ff8565b5b6110f28482856110a9565b509392505050565b600082601f83011261110f5761110e610ff3565b5b813561111f8482602086016110b8565b91505092915050565b600067ffffffffffffffff82111561114357611142610ffd565b5b602082029050602081019050919050565b600080fd5b600061116c61116784611128565b61105d565b9050808382526020820190506020840283018581111561118f5761118e611154565b5b835b818110156111d657803567ffffffffffffffff8111156111b4576111b3610ff3565b5b8086016111c189826110fa565b85526020850194505050602081019050611191565b5050509392505050565b600082601f8301126111f5576111f4610ff3565b5b8135611205848260208601611159565b91505092915050565b60008060006060848603121561122757611226610daa565b5b600084013567ffffffffffffffff81111561124557611244610daf565b5b611251868287016110fa565b935050602084013567ffffffffffffffff81111561127257611271610daf565b5b61127e868287016111e0565b925050604061128f86828701610dd5565b9150509250925092565b6112a281610db4565b82525050565b600082825260208201905092915050565b60006112c482610e52565b6112ce81856112a8565b93506112de818560208601610e6e565b6112e781610ea1565b840191505092915050565b60006060820190506113076000830186611299565b818103602083015261131981856112b9565b90506113286040830184611299565b949350505050565b600081519050919050565b600082825260208201905092915050565b6000819050602082019050919050565b60006113688383610eb2565b905092915050565b6000602082019050919050565b600061138882611330565b611392818561133b565b9350836020820285016113a48561134c565b8060005b858110156113e057848403895281516113c1858261135c565b94506113cc83611370565b925060208a019950506001810190506113a8565b50829750879550505050505092915050565b6000602082019050818103600083015261140c818461137d565b905092915050565b600080fd5b60008083601f84011261142f5761142e610ff3565b5b8235905067ffffffffffffffff81111561144c5761144b611414565b5b60208301915083602082028301111561146857611467611154565b5b9250929050565b6000806020838503121561148657611485610daa565b5b600083013567ffffffffffffffff8111156114a4576114a3610daf565b5b6114b085828601611419565b92509250509250929050565b600073ffffffffffffffffffffffffffffffffffffffff82169050919050565b60006114e7826114bc565b9050919050565b6114f7816114dc565b811461150257600080fd5b50565b600081359050611514816114ee565b92915050565b6000806040838503121561153157611530610daa565b5b600061153f85828601611505565b925050602061155085828601610dd5565b9150509250929050565b60008115159050919050565b61156f8161155a565b82525050565b600060208201905061158a6000830184611566565b92915050565b6000602082840312156115a6576115a5610daa565b5b60006115b484828501611505565b91505092915050565b600080604083850312156115d4576115d3610daa565b5b60006115e285828601610dd5565b92505060206115f385828601610dd5565b9150509250929050565b6000602082019050818103600083015261161781846112b9565b905092915050565b60006020820190506116346000830184611299565b92915050565b611643816114dc565b82525050565b600060208201905061165e600083018461163a565b92915050565b7f63616e6e6f7420736565207468652062616c6c6f7420726573756c742062656660008201527f6f72652062616c6c6f7420656e64000000000000000000000000000000000000602082015250565b60006116c0602e836112a8565b91506116cb82611664565b604082019050919050565b600060208201905081810360008301526116ef816116b3565b9050919050565b7f4e487b7100000000000000000000000000000000000000000000000000000000600052602260045260246000fd5b6000600282049050600182168061173d57607f821691505b6020821081036117505761174f6116f6565b5b50919050565b7f6f6e6c792061646d696e00000000000000000000000000000000000000000000600082015250565b600061178c600a836112a8565b915061179782611756565b602082019050919050565b600060208201905081810360008301526117bb8161177f565b9050919050565b7f4e487b7100000000000000000000000000000000000000000000000000000000600052601160045260246000fd5b60006117fc82610db4565b915061180783610db4565b9250827fffffffffffffffffffffffffffffffffffffffffffffffffffffffffffffffff0382111561183c5761183b6117c2565b5b828201905092915050565b7f4e487b7100000000000000000000000000000000000000000000000000000000600052603260045260246000fd5b600061188182610db4565b91507fffffffffffffffffffffffffffffffffffffffffffffffffffffffffffffffff82036118b3576118b26117c2565b5b600182019050919050565b7f6f6e6c7920766f746572732063616e20766f7465000000000000000000000000600082015250565b60006118f46014836112a8565b91506118ff826118be565b602082019050919050565b60006020820190508181036000830152611923816118e7565b9050919050565b7f766f7465722063616e206f6e6c7920766f7465206f6e636520666f722061206260008201527f616c6c6f74000000000000000000000000000000000000000000000000000000602082015250565b60006119866025836112a8565b91506119918261192a565b604082019050919050565b600060208201905081810360008301526119b581611979565b9050919050565b7f63616e206f6e6c7920766f746520756e74696c2062616c6c6f7420656e64206460008201527f6174650000000000000000000000000000000000000000000000000000000000602082015250565b6000611a186023836112a8565b9150611a23826119bc565b604082019050919050565b60006020820190508181036000830152611a4781611a0b565b905091905056fea2646970667358221220cd9badd2918d3b87771f8d1f83394e18118c20472a566e66f4aa1da3b58f876964736f6c634300080d0033",
  "immutableReferences": {},
  "source": "// SPDX-License-Identifier: GPL-3.0\npragma solidity ^0.8.13;\n\n\ncontract Voting {\n  mapping(address => bool) public voters;\n  struct Choice {\n    uint id;\n    string name;\n    uint votes;\n  }\n  struct Ballot {\n    uint id;\n    string name;\n    Choice[] choices;\n    uint end;\n  }\n  mapping(uint => Ballot) public ballots;\n  mapping(uint => string[]) public choiceNames;\n  uint public nextBallotId;\n  address public admin;\n  mapping(address => mapping(uint => bool)) public votes;\n  \n  constructor() {\n    admin = msg.sender;\n  }\n\n  function addVoters(address[] calldata _voters) external onlyAdmin() {\n    for(uint i = 0; i < _voters.length; i++) {\n        voters[_voters[i]] = true;\n    }\n  }\n\n  function createBallot(\n    string memory name,\n    string[] memory _choices,\n    uint offset\n    ) public onlyAdmin() {\n      ballots[nextBallotId].id = nextBallotId;\n      ballots[nextBallotId].name = name;\n      ballots[nextBallotId].end = block.timestamp + offset;\n      for(uint i = 0; i < _choices.length ; i++) {\n        ballots[nextBallotId].choices.push(Choice(i, _choices[i], 0));\n      }\n      choiceNames[nextBallotId] = _choices;\n      nextBallotId++;\n  }\n\n  function vote(uint ballotId, uint choiceId) external {\n    require(voters[msg.sender] == true, 'only voters can vote');\n    require(votes[msg.sender][ballotId] == false, 'voter can only vote once for a ballot');\n    require(block.timestamp < ballots[ballotId].end, 'can only vote until ballot end date');\n    votes[msg.sender][ballotId] = true;\n    ballots[ballotId].choices[choiceId].votes++;\n  }\n\n  function getChoiceNames(uint ballotId)\n    view\n    external\n    returns(string[] memory) {\n    return choiceNames[ballotId];\n  }\n\n  function results(uint ballotId)\n    view\n    external\n    returns(Choice[] memory) {\n    require(block.timestamp >= ballots[ballotId].end, 'cannot see the ballot result before ballot end');\n    return ballots[ballotId].choices;\n  }\n\n  modifier onlyAdmin() {\n    require(msg.sender == admin, 'only admin');\n    _;\n  }\n}\n",
  "sourcePath": "/Users/yuriikhomych/Projects/dapp-30/day14-voting/frontend/contracts/Voting.sol",
  "compiler": {
    "name": "solc",
    "version": "0.8.13+commit.abaa5c0e.Emscripten.clang"
  },
  "schemaVersion": "3.4.7",
  "updatedAt": "2022-06-20T18:22:23.890Z",
  "networkType": "ethereum",
  "devdoc": {
    "kind": "dev",
    "methods": {},
    "version": 1
  },
  "userdoc": {
    "kind": "user",
    "methods": {},
    "version": 1
  }
}