{
  "contractName": "Fibonacci",
  "abi": [
    {
      "inputs": [
        {
          "internalType": "uint256",
          "name": "n",
          "type": "uint256"
        }
      ],
      "name": "fib",
      "outputs": [
        {
          "internalType": "uint256",
          "name": "",
          "type": "uint256"
        }
      ],
      "stateMutability": "pure",
      "type": "function",
      "constant": true
    }
  ],
  "bytecode": "0x608060405234801561001057600080fd5b50610258806100206000396000f3fe608060405234801561001057600080fd5b506004361061002b5760003560e01c8063c6c2ea1714610030575b600080fd5b61004a600480360381019061004591906100fe565b610060565b604051610057919061013a565b60405180910390f35b600080820361007257600090506100be565b6000600190506000600190506000600290505b848110156100b7576000828461009b9190610184565b90508392508093505080806100af906101da565b915050610085565b5081925050505b919050565b600080fd5b6000819050919050565b6100db816100c8565b81146100e657600080fd5b50565b6000813590506100f8816100d2565b92915050565b600060208284031215610114576101136100c3565b5b6000610122848285016100e9565b91505092915050565b610134816100c8565b82525050565b600060208201905061014f600083018461012b565b92915050565b7f4e487b7100000000000000000000000000000000000000000000000000000000600052601160045260246000fd5b600061018f826100c8565b915061019a836100c8565b9250827fffffffffffffffffffffffffffffffffffffffffffffffffffffffffffffffff038211156101cf576101ce610155565b5b828201905092915050565b60006101e5826100c8565b91507fffffffffffffffffffffffffffffffffffffffffffffffffffffffffffffffff820361021757610216610155565b5b60018201905091905056fea2646970667358221220826f25e49016fc22d2a760572954b9f704a812dedb344b5a5fcebf9ca63ce82d64736f6c634300080d0033",
  "immutableReferences": {},
  "source": "// SPDX-License-Identifier: GPL-3.0\npragma solidity ^0.8.13;\n\ncontract Fibonacci {\n  function fib(uint n) pure external returns(uint) {\n    if(n == 0) {\n      return 0;\n    }\n    uint fi_1 = 1;\n    uint fi_2 = 1;\n    for(uint i = 2; i < n; i++) {\n      uint fi = fi_1 + fi_2;\n      fi_2 = fi_1;\n      fi_1 = fi;\n    }\n    return fi_1;\n  }\n}\n",
  "sourcePath": "/Users/yuriikhomych/Projects/dapp-30/day12-fibonacci/frontend/contracts/Fibonacci.sol",
  "compiler": {
    "name": "solc",
    "version": "0.8.13+commit.abaa5c0e.Emscripten.clang"
  },
  "schemaVersion": "3.4.7",
  "updatedAt": "2022-05-09T19:17:25.266Z",
  "networkType": "ethereum",
  "devdoc": {
    "kind": "dev",
    "methods": {},
    "version": 1
  },
  "userdoc": {
    "kind": "user",
    "methods": {},
    "version": 1
  }
}