{
  "contractName": "DAO",
  "abi": [
    {
      "inputs": [
        {
          "internalType": "uint256",
          "name": "contributionTime",
          "type": "uint256"
        },
        {
          "internalType": "uint256",
          "name": "_voteTime",
          "type": "uint256"
        },
        {
          "internalType": "uint256",
          "name": "_quorum",
          "type": "uint256"
        }
      ],
      "stateMutability": "nonpayable",
      "type": "constructor"
    },
    {
      "inputs": [],
      "name": "admin",
      "outputs": [
        {
          "internalType": "address",
          "name": "",
          "type": "address"
        }
      ],
      "stateMutability": "view",
      "type": "function",
      "constant": true
    },
    {
      "inputs": [],
      "name": "availableFunds",
      "outputs": [
        {
          "internalType": "uint256",
          "name": "",
          "type": "uint256"
        }
      ],
      "stateMutability": "view",
      "type": "function",
      "constant": true
    },
    {
      "inputs": [],
      "name": "contributionEnd",
      "outputs": [
        {
          "internalType": "uint256",
          "name": "",
          "type": "uint256"
        }
      ],
      "stateMutability": "view",
      "type": "function",
      "constant": true
    },
    {
      "inputs": [
        {
          "internalType": "address",
          "name": "",
          "type": "address"
        }
      ],
      "name": "investors",
      "outputs": [
        {
          "internalType": "bool",
          "name": "",
          "type": "bool"
        }
      ],
      "stateMutability": "view",
      "type": "function",
      "constant": true
    },
    {
      "inputs": [],
      "name": "nextProposalId",
      "outputs": [
        {
          "internalType": "uint256",
          "name": "",
          "type": "uint256"
        }
      ],
      "stateMutability": "view",
      "type": "function",
      "constant": true
    },
    {
      "inputs": [
        {
          "internalType": "uint256",
          "name": "",
          "type": "uint256"
        }
      ],
      "name": "proposals",
      "outputs": [
        {
          "internalType": "uint256",
          "name": "id",
          "type": "uint256"
        },
        {
          "internalType": "string",
          "name": "name",
          "type": "string"
        },
        {
          "internalType": "uint256",
          "name": "amount",
          "type": "uint256"
        },
        {
          "internalType": "address payable",
          "name": "recipient",
          "type": "address"
        },
        {
          "internalType": "uint256",
          "name": "votes",
          "type": "uint256"
        },
        {
          "internalType": "uint256",
          "name": "end",
          "type": "uint256"
        },
        {
          "internalType": "bool",
          "name": "executed",
          "type": "bool"
        }
      ],
      "stateMutability": "view",
      "type": "function",
      "constant": true
    },
    {
      "inputs": [],
      "name": "quorum",
      "outputs": [
        {
          "internalType": "uint256",
          "name": "",
          "type": "uint256"
        }
      ],
      "stateMutability": "view",
      "type": "function",
      "constant": true
    },
    {
      "inputs": [
        {
          "internalType": "address",
          "name": "",
          "type": "address"
        }
      ],
      "name": "shares",
      "outputs": [
        {
          "internalType": "uint256",
          "name": "",
          "type": "uint256"
        }
      ],
      "stateMutability": "view",
      "type": "function",
      "constant": true
    },
    {
      "inputs": [],
      "name": "totalShares",
      "outputs": [
        {
          "internalType": "uint256",
          "name": "",
          "type": "uint256"
        }
      ],
      "stateMutability": "view",
      "type": "function",
      "constant": true
    },
    {
      "inputs": [],
      "name": "voteTime",
      "outputs": [
        {
          "internalType": "uint256",
          "name": "",
          "type": "uint256"
        }
      ],
      "stateMutability": "view",
      "type": "function",
      "constant": true
    },
    {
      "inputs": [
        {
          "internalType": "address",
          "name": "",
          "type": "address"
        },
        {
          "internalType": "uint256",
          "name": "",
          "type": "uint256"
        }
      ],
      "name": "votes",
      "outputs": [
        {
          "internalType": "bool",
          "name": "",
          "type": "bool"
        }
      ],
      "stateMutability": "view",
      "type": "function",
      "constant": true
    },
    {
      "stateMutability": "payable",
      "type": "receive",
      "payable": true
    },
    {
      "inputs": [],
      "name": "contribute",
      "outputs": [],
      "stateMutability": "payable",
      "type": "function",
      "payable": true
    },
    {
      "inputs": [
        {
          "internalType": "uint256",
          "name": "amount",
          "type": "uint256"
        }
      ],
      "name": "redeemShare",
      "outputs": [],
      "stateMutability": "nonpayable",
      "type": "function"
    },
    {
      "inputs": [
        {
          "internalType": "uint256",
          "name": "amount",
          "type": "uint256"
        },
        {
          "internalType": "address",
          "name": "to",
          "type": "address"
        }
      ],
      "name": "transferShare",
      "outputs": [],
      "stateMutability": "nonpayable",
      "type": "function"
    },
    {
      "inputs": [
        {
          "internalType": "string",
          "name": "name",
          "type": "string"
        },
        {
          "internalType": "uint256",
          "name": "amount",
          "type": "uint256"
        },
        {
          "internalType": "address payable",
          "name": "recipient",
          "type": "address"
        }
      ],
      "name": "createProposal",
      "outputs": [],
      "stateMutability": "nonpayable",
      "type": "function"
    },
    {
      "inputs": [
        {
          "internalType": "uint256",
          "name": "proposalId",
          "type": "uint256"
        }
      ],
      "name": "vote",
      "outputs": [],
      "stateMutability": "nonpayable",
      "type": "function"
    },
    {
      "inputs": [
        {
          "internalType": "uint256",
          "name": "proposalId",
          "type": "uint256"
        }
      ],
      "name": "executeProposal",
      "outputs": [],
      "stateMutability": "nonpayable",
      "type": "function"
    },
    {
      "inputs": [
        {
          "internalType": "uint256",
          "name": "amount",
          "type": "uint256"
        },
        {
          "internalType": "address payable",
          "name": "to",
          "type": "address"
        }
      ],
      "name": "withdrawEther",
      "outputs": [],
      "stateMutability": "nonpayable",
      "type": "function"
    }
  ],
  "bytecode": "0x60806040523480156200001157600080fd5b50604051620022dc380380620022dc833981810160405281019062000037919062000136565b600081118015620000485750606481105b6200008a576040517f08c379a00000000000000000000000000000000000000000000000000000000081526004016200008190620001f3565b60405180910390fd5b824262000098919062000244565b600681905550816008819055508060098190555033600a60006101000a81548173ffffffffffffffffffffffffffffffffffffffff021916908373ffffffffffffffffffffffffffffffffffffffff160217905550505050620002a1565b600080fd5b6000819050919050565b6200011081620000fb565b81146200011c57600080fd5b50565b600081519050620001308162000105565b92915050565b600080600060608486031215620001525762000151620000f6565b5b600062000162868287016200011f565b935050602062000175868287016200011f565b925050604062000188868287016200011f565b9150509250925092565b600082825260208201905092915050565b7f71756f72756d206d757374206265206265747765656e203020616e6420313030600082015250565b6000620001db60208362000192565b9150620001e882620001a3565b602082019050919050565b600060208201905081810360008301526200020e81620001cc565b9050919050565b7f4e487b7100000000000000000000000000000000000000000000000000000000600052601160045260246000fd5b60006200025182620000fb565b91506200025e83620000fb565b9250827fffffffffffffffffffffffffffffffffffffffffffffffffffffffffffffffff0382111562000296576200029562000215565b5b828201905092915050565b61202b80620002b16000396000f3fe60806040526004361061010d5760003560e01c80636f7bc9be11610095578063ce56c45411610064578063ce56c45414610392578063ce7c2ac2146103bb578063d151b516146103f8578063d7bb99ba14610423578063f851a4401461042d5761012c565b80636f7bc9be146102c4578063868643df146103015780639f2524ee1461032a578063bcf93dd6146103675761012c565b80631703a018116100dc5780631703a018146101ef5780632ab09d141461021a5780633a98ef391461024557806346fcff4c146102705780636ac1e01f1461029b5761012c565b80630121b93f14610131578063013cf08b1461015a578063039383e61461019d5780630d61b519146101c65761012c565b3661012c57346005600082825461012491906112d3565b925050819055005b600080fd5b34801561013d57600080fd5b5061015860048036038101906101539190611369565b610458565b005b34801561016657600080fd5b50610181600480360381019061017c9190611369565b6106b2565b604051610194979695949392919061149a565b60405180910390f35b3480156101a957600080fd5b506101c460048036038101906101bf919061154e565b6107a9565b005b3480156101d257600080fd5b506101ed60048036038101906101e89190611369565b610932565b005b3480156101fb57600080fd5b50610204610b2d565b604051610211919061158e565b60405180910390f35b34801561022657600080fd5b5061022f610b33565b60405161023c919061158e565b60405180910390f35b34801561025157600080fd5b5061025a610b39565b604051610267919061158e565b60405180910390f35b34801561027c57600080fd5b50610285610b3f565b604051610292919061158e565b60405180910390f35b3480156102a757600080fd5b506102c260048036038101906102bd919061170a565b610b45565b005b3480156102d057600080fd5b506102eb60048036038101906102e69190611779565b610d72565b6040516102f891906117a6565b60405180910390f35b34801561030d57600080fd5b5061032860048036038101906103239190611369565b610d92565b005b34801561033657600080fd5b50610351600480360381019061034c91906117c1565b610f12565b60405161035e91906117a6565b60405180910390f35b34801561037357600080fd5b5061037c610f41565b604051610389919061158e565b60405180910390f35b34801561039e57600080fd5b506103b960048036038101906103b49190611801565b610f47565b005b3480156103c757600080fd5b506103e260048036038101906103dd9190611779565b610fe5565b6040516103ef919061158e565b60405180910390f35b34801561040457600080fd5b5061040d610ffd565b60405161041a919061158e565b60405180910390f35b61042b611003565b005b34801561043957600080fd5b50610442611128565b60405161044f9190611850565b60405180910390f35b600115156000803373ffffffffffffffffffffffffffffffffffffffff1673ffffffffffffffffffffffffffffffffffffffff16815260200190815260200160002060009054906101000a900460ff161515146104ea576040517f08c379a00000000000000000000000000000000000000000000000000000000081526004016104e1906118b7565b60405180910390fd5b600060036000838152602001908152602001600020905060001515600260003373ffffffffffffffffffffffffffffffffffffffff1673ffffffffffffffffffffffffffffffffffffffff168152602001908152602001600020600084815260200190815260200160002060009054906101000a900460ff161515146105a5576040517f08c379a000000000000000000000000000000000000000000000000000000000815260040161059c90611949565b60405180910390fd5b806005015442106105eb576040517f08c379a00000000000000000000000000000000000000000000000000000000081526004016105e2906119db565b60405180910390fd5b6001600260003373ffffffffffffffffffffffffffffffffffffffff1673ffffffffffffffffffffffffffffffffffffffff168152602001908152602001600020600084815260200190815260200160002060006101000a81548160ff021916908315150217905550600160003373ffffffffffffffffffffffffffffffffffffffff1673ffffffffffffffffffffffffffffffffffffffff168152602001908152602001600020548160040160008282546106a791906112d3565b925050819055505050565b60036020528060005260406000206000915090508060000154908060010180546106db90611a2a565b80601f016020809104026020016040519081016040528092919081815260200182805461070790611a2a565b80156107545780601f1061072957610100808354040283529160200191610754565b820191906000526020600020905b81548152906001019060200180831161073757829003601f168201915b5050505050908060020154908060030160009054906101000a900473ffffffffffffffffffffffffffffffffffffffff16908060040154908060050154908060060160009054906101000a900460ff16905087565b81600160003373ffffffffffffffffffffffffffffffffffffffff1673ffffffffffffffffffffffffffffffffffffffff16815260200190815260200160002054101561082b576040517f08c379a000000000000000000000000000000000000000000000000000000000815260040161082290611aa7565b60405180910390fd5b81600160003373ffffffffffffffffffffffffffffffffffffffff1673ffffffffffffffffffffffffffffffffffffffff168152602001908152602001600020600082825461087a9190611ac7565b9250508190555081600160008373ffffffffffffffffffffffffffffffffffffffff1673ffffffffffffffffffffffffffffffffffffffff16815260200190815260200160002060008282546108d091906112d3565b9250508190555060016000808373ffffffffffffffffffffffffffffffffffffffff1673ffffffffffffffffffffffffffffffffffffffff16815260200190815260200160002060006101000a81548160ff0219169083151502179055505050565b600a60009054906101000a900473ffffffffffffffffffffffffffffffffffffffff1673ffffffffffffffffffffffffffffffffffffffff163373ffffffffffffffffffffffffffffffffffffffff16146109c2576040517f08c379a00000000000000000000000000000000000000000000000000000000081526004016109b990611b47565b60405180910390fd5b60006003600083815260200190815260200160002090508060050154421015610a20576040517f08c379a0000000000000000000000000000000000000000000000000000000008152600401610a1790611bd9565b60405180910390fd5b600015158160060160009054906101000a900460ff16151514610a78576040517f08c379a0000000000000000000000000000000000000000000000000000000008152600401610a6f90611c6b565b60405180910390fd5b60095460045460648360040154610a8f9190611c8b565b610a999190611d14565b1015610ada576040517f08c379a0000000000000000000000000000000000000000000000000000000008152600401610ad190611db7565b60405180910390fd5b610b0c81600201548260030160009054906101000a900473ffffffffffffffffffffffffffffffffffffffff1661114e565b60018160060160006101000a81548160ff0219169083151502179055505050565b60095481565b60075481565b60045481565b60055481565b600115156000803373ffffffffffffffffffffffffffffffffffffffff1673ffffffffffffffffffffffffffffffffffffffff16815260200190815260200160002060009054906101000a900460ff16151514610bd7576040517f08c379a0000000000000000000000000000000000000000000000000000000008152600401610bce906118b7565b60405180910390fd5b816005541015610c1c576040517f08c379a0000000000000000000000000000000000000000000000000000000008152600401610c1390611e23565b60405180910390fd5b6040518060e0016040528060075481526020018481526020018381526020018273ffffffffffffffffffffffffffffffffffffffff1681526020016000815260200160085442610c6c91906112d3565b815260200160001515815250600360006007548152602001908152602001600020600082015181600001556020820151816001019080519060200190610cb39291906111f7565b506040820151816002015560608201518160030160006101000a81548173ffffffffffffffffffffffffffffffffffffffff021916908373ffffffffffffffffffffffffffffffffffffffff1602179055506080820151816004015560a0820151816005015560c08201518160060160006101000a81548160ff0219169083151502179055509050508160056000828254610d4e9190611ac7565b9250508190555060076000815480929190610d6890611e43565b9190505550505050565b60006020528060005260406000206000915054906101000a900460ff1681565b80600160003373ffffffffffffffffffffffffffffffffffffffff1673ffffffffffffffffffffffffffffffffffffffff168152602001908152602001600020541015610e14576040517f08c379a0000000000000000000000000000000000000000000000000000000008152600401610e0b90611aa7565b60405180910390fd5b806005541015610e59576040517f08c379a0000000000000000000000000000000000000000000000000000000008152600401610e5090611ed7565b60405180910390fd5b80600160003373ffffffffffffffffffffffffffffffffffffffff1673ffffffffffffffffffffffffffffffffffffffff1681526020019081526020016000206000828254610ea89190611ac7565b925050819055508060056000828254610ec19190611ac7565b925050819055503373ffffffffffffffffffffffffffffffffffffffff166108fc829081150290604051600060405180830381858888f19350505050158015610f0e573d6000803e3d6000fd5b5050565b60026020528160005260406000206020528060005260406000206000915091509054906101000a900460ff1681565b60085481565b600a60009054906101000a900473ffffffffffffffffffffffffffffffffffffffff1673ffffffffffffffffffffffffffffffffffffffff163373ffffffffffffffffffffffffffffffffffffffff1614610fd7576040517f08c379a0000000000000000000000000000000000000000000000000000000008152600401610fce90611b47565b60405180910390fd5b610fe1828261114e565b5050565b60016020528060005260406000206000915090505481565b60065481565b6006544210611047576040517f08c379a000000000000000000000000000000000000000000000000000000000815260040161103e90611f69565b60405180910390fd5b60016000803373ffffffffffffffffffffffffffffffffffffffff1673ffffffffffffffffffffffffffffffffffffffff16815260200190815260200160002060006101000a81548160ff02191690831515021790555034600160003373ffffffffffffffffffffffffffffffffffffffff1673ffffffffffffffffffffffffffffffffffffffff16815260200190815260200160002060008282546110ed91906112d3565b92505081905550346004600082825461110691906112d3565b92505081905550346005600082825461111f91906112d3565b92505081905550565b600a60009054906101000a900473ffffffffffffffffffffffffffffffffffffffff1681565b600554821115611193576040517f08c379a000000000000000000000000000000000000000000000000000000000815260040161118a90611fd5565b60405180910390fd5b81600560008282546111a59190611ac7565b925050819055508073ffffffffffffffffffffffffffffffffffffffff166108fc839081150290604051600060405180830381858888f193505050501580156111f2573d6000803e3d6000fd5b505050565b82805461120390611a2a565b90600052602060002090601f016020900481019282611225576000855561126c565b82601f1061123e57805160ff191683800117855561126c565b8280016001018555821561126c579182015b8281111561126b578251825591602001919060010190611250565b5b509050611279919061127d565b5090565b5b8082111561129657600081600090555060010161127e565b5090565b6000819050919050565b7f4e487b7100000000000000000000000000000000000000000000000000000000600052601160045260246000fd5b60006112de8261129a565b91506112e98361129a565b9250827fffffffffffffffffffffffffffffffffffffffffffffffffffffffffffffffff0382111561131e5761131d6112a4565b5b828201905092915050565b6000604051905090565b600080fd5b600080fd5b6113468161129a565b811461135157600080fd5b50565b6000813590506113638161133d565b92915050565b60006020828403121561137f5761137e611333565b5b600061138d84828501611354565b91505092915050565b61139f8161129a565b82525050565b600081519050919050565b600082825260208201905092915050565b60005b838110156113df5780820151818401526020810190506113c4565b838111156113ee576000848401525b50505050565b6000601f19601f8301169050919050565b6000611410826113a5565b61141a81856113b0565b935061142a8185602086016113c1565b611433816113f4565b840191505092915050565b600073ffffffffffffffffffffffffffffffffffffffff82169050919050565b60006114698261143e565b9050919050565b6114798161145e565b82525050565b60008115159050919050565b6114948161147f565b82525050565b600060e0820190506114af600083018a611396565b81810360208301526114c18189611405565b90506114d06040830188611396565b6114dd6060830187611470565b6114ea6080830186611396565b6114f760a0830185611396565b61150460c083018461148b565b98975050505050505050565b600061151b8261143e565b9050919050565b61152b81611510565b811461153657600080fd5b50565b60008135905061154881611522565b92915050565b6000806040838503121561156557611564611333565b5b600061157385828601611354565b925050602061158485828601611539565b9150509250929050565b60006020820190506115a36000830184611396565b92915050565b600080fd5b600080fd5b7f4e487b7100000000000000000000000000000000000000000000000000000000600052604160045260246000fd5b6115eb826113f4565b810181811067ffffffffffffffff8211171561160a576116096115b3565b5b80604052505050565b600061161d611329565b905061162982826115e2565b919050565b600067ffffffffffffffff821115611649576116486115b3565b5b611652826113f4565b9050602081019050919050565b82818337600083830152505050565b600061168161167c8461162e565b611613565b90508281526020810184848401111561169d5761169c6115ae565b5b6116a884828561165f565b509392505050565b600082601f8301126116c5576116c46115a9565b5b81356116d584826020860161166e565b91505092915050565b6116e78161145e565b81146116f257600080fd5b50565b600081359050611704816116de565b92915050565b60008060006060848603121561172357611722611333565b5b600084013567ffffffffffffffff81111561174157611740611338565b5b61174d868287016116b0565b935050602061175e86828701611354565b925050604061176f868287016116f5565b9150509250925092565b60006020828403121561178f5761178e611333565b5b600061179d84828501611539565b91505092915050565b60006020820190506117bb600083018461148b565b92915050565b600080604083850312156117d8576117d7611333565b5b60006117e685828601611539565b92505060206117f785828601611354565b9150509250929050565b6000806040838503121561181857611817611333565b5b600061182685828601611354565b9250506020611837858286016116f5565b9150509250929050565b61184a81611510565b82525050565b60006020820190506118656000830184611841565b92915050565b7f6f6e6c7920696e766573746f7273000000000000000000000000000000000000600082015250565b60006118a1600e836113b0565b91506118ac8261186b565b602082019050919050565b600060208201905081810360008301526118d081611894565b9050919050565b7f696e766573746f722063616e206f6e6c7920766f7465206f6e636520666f722060008201527f612070726f706f73616c00000000000000000000000000000000000000000000602082015250565b6000611933602a836113b0565b915061193e826118d7565b604082019050919050565b6000602082019050818103600083015261196281611926565b9050919050565b7f63616e206f6e6c7920766f746520756e74696c2070726f706f73616c20656e6460008201527f2064617465000000000000000000000000000000000000000000000000000000602082015250565b60006119c56025836113b0565b91506119d082611969565b604082019050919050565b600060208201905081810360008301526119f4816119b8565b9050919050565b7f4e487b7100000000000000000000000000000000000000000000000000000000600052602260045260246000fd5b60006002820490506001821680611a4257607f821691505b602082108103611a5557611a546119fb565b5b50919050565b7f6e6f7420656e6f75676820736861726573000000000000000000000000000000600082015250565b6000611a916011836113b0565b9150611a9c82611a5b565b602082019050919050565b60006020820190508181036000830152611ac081611a84565b9050919050565b6000611ad28261129a565b9150611add8361129a565b925082821015611af057611aef6112a4565b5b828203905092915050565b7f6f6e6c792061646d696e00000000000000000000000000000000000000000000600082015250565b6000611b31600a836113b0565b9150611b3c82611afb565b602082019050919050565b60006020820190508181036000830152611b6081611b24565b9050919050565b7f63616e6e6f7420657865637574652070726f706f73616c206265666f7265206560008201527f6e64206461746500000000000000000000000000000000000000000000000000602082015250565b6000611bc36027836113b0565b9150611bce82611b67565b604082019050919050565b60006020820190508181036000830152611bf281611bb6565b9050919050565b7f63616e6e6f7420657865637574652070726f706f73616c20616c72656164792060008201527f6578656375746564000000000000000000000000000000000000000000000000602082015250565b6000611c556028836113b0565b9150611c6082611bf9565b604082019050919050565b60006020820190508181036000830152611c8481611c48565b9050919050565b6000611c968261129a565b9150611ca18361129a565b9250817fffffffffffffffffffffffffffffffffffffffffffffffffffffffffffffffff0483118215151615611cda57611cd96112a4565b5b828202905092915050565b7f4e487b7100000000000000000000000000000000000000000000000000000000600052601260045260246000fd5b6000611d1f8261129a565b9150611d2a8361129a565b925082611d3a57611d39611ce5565b5b828204905092915050565b7f63616e6e6f7420657865637574652070726f706f73616c207769746820766f7460008201527f657320232062656c6f772071756f72756d000000000000000000000000000000602082015250565b6000611da16031836113b0565b9150611dac82611d45565b604082019050919050565b60006020820190508181036000830152611dd081611d94565b9050919050565b7f616d6f756e7420746f6f20626967000000000000000000000000000000000000600082015250565b6000611e0d600e836113b0565b9150611e1882611dd7565b602082019050919050565b60006020820190508181036000830152611e3c81611e00565b9050919050565b6000611e4e8261129a565b91507fffffffffffffffffffffffffffffffffffffffffffffffffffffffffffffffff8203611e8057611e7f6112a4565b5b600182019050919050565b7f6e6f7420656e6f75676820617661696c61626c652066756e6473000000000000600082015250565b6000611ec1601a836113b0565b9150611ecc82611e8b565b602082019050919050565b60006020820190508181036000830152611ef081611eb4565b9050919050565b7f63616e6e6f7420636f6e7472696275746520616674657220636f6e747269627560008201527f74696f6e456e6400000000000000000000000000000000000000000000000000602082015250565b6000611f536027836113b0565b9150611f5e82611ef7565b604082019050919050565b60006020820190508181036000830152611f8281611f46565b9050919050565b7f6e6f7420656e6f75676820617661696c61626c6546756e647300000000000000600082015250565b6000611fbf6019836113b0565b9150611fca82611f89565b602082019050919050565b60006020820190508181036000830152611fee81611fb2565b905091905056fea2646970667358221220b471d944397e4050ce3842d182295207b28aa84cb9fd27382d2153d57d16342b64736f6c634300080d0033",
  "immutableReferences": {},
  "source": "// SPDX-License-Identifier: GPL-3.0\npragma solidity ^0.8.13;\n\n/**\n * DAO contract:\n * 1. Collects investors money (ether) & allocate shares\n * 2. Keep track of investor contributions with shares\n * 3. Allow investors to transfer shares\n * 4. allow investment proposals to be created and voted\n * 5. execute successful investment proposals (i.e send money)\n */\n\ncontract DAO {\n  struct Proposal {\n    uint id;\n    string name;\n    uint amount;\n    address payable recipient;\n    uint votes;\n    uint end;\n    bool executed;\n  }\n\n  mapping(address => bool) public investors;\n  mapping(address => uint) public shares;\n  mapping(address => mapping(uint => bool)) public votes;\n  mapping(uint => Proposal) public proposals;\n  uint public totalShares;\n  uint public availableFunds;\n  uint public contributionEnd;\n  uint public nextProposalId;\n  uint public voteTime;\n  uint public quorum;\n  address public admin;\n\n  constructor(\n    uint contributionTime,\n    uint _voteTime,\n    uint _quorum) {\n    require(_quorum > 0 && _quorum < 100, 'quorum must be between 0 and 100');\n    contributionEnd = block.timestamp + contributionTime;\n    voteTime = _voteTime;\n    quorum = _quorum;\n    admin = msg.sender;\n  }\n\n  function contribute() payable external {\n    require(block.timestamp < contributionEnd, 'cannot contribute after contributionEnd');\n    investors[msg.sender] = true;\n    shares[msg.sender] += msg.value;\n    totalShares += msg.value;\n    availableFunds += msg.value;\n  }\n\n  function redeemShare(uint amount) external {\n    require(shares[msg.sender] >= amount, 'not enough shares');\n    require(availableFunds >= amount, 'not enough available funds');\n    shares[msg.sender] -= amount;\n    availableFunds -= amount;\n    payable(msg.sender).transfer(amount);\n  }\n\n  function transferShare(uint amount, address to) external {\n    require(shares[msg.sender] >= amount, 'not enough shares');\n    shares[msg.sender] -= amount;\n    shares[to] += amount;\n    investors[to] = true;\n  }\n\n  function createProposal(\n    string memory name,\n    uint amount,\n    address payable recipient)\n    public\n    onlyInvestors() {\n    require(availableFunds >= amount, 'amount too big');\n    proposals[nextProposalId] = Proposal(\n      nextProposalId,\n      name,\n      amount,\n      recipient,\n      0,\n      block.timestamp + voteTime,\n      false\n    );\n    availableFunds -= amount;\n    nextProposalId++;\n  }\n\n  function vote(uint proposalId) external onlyInvestors() {\n    Proposal storage proposal = proposals[proposalId];\n    require(votes[msg.sender][proposalId] == false, 'investor can only vote once for a proposal');\n    require(block.timestamp < proposal.end, 'can only vote until proposal end date');\n    votes[msg.sender][proposalId] = true;\n    proposal.votes += shares[msg.sender];\n  }\n\n  function executeProposal(uint proposalId) external onlyAdmin() {\n    Proposal storage proposal = proposals[proposalId];\n    require(block.timestamp >= proposal.end, 'cannot execute proposal before end date');\n    require(proposal.executed == false, 'cannot execute proposal already executed');\n    require(proposal.votes * 100 / totalShares >= quorum, 'cannot execute proposal with votes # below quorum');\n    _transferEther(proposal.amount, proposal.recipient);\n    proposal.executed = true;\n  }\n\n  function withdrawEther(uint amount, address payable to) external onlyAdmin() {\n    _transferEther(amount, to);\n  }\n\n  function _transferEther(uint amount, address payable to) internal {\n    require(amount <= availableFunds, 'not enough availableFunds');\n    availableFunds -= amount;\n    to.transfer(amount);\n  }\n\n  //For ether returns of proposal investments\n  receive() external payable {\n    availableFunds += msg.value;\n  }\n\n  modifier onlyInvestors() {\n    require(investors[msg.sender] == true, 'only investors');\n    _;\n  }\n\n  modifier onlyAdmin() {\n    require(msg.sender == admin, 'only admin');\n    _;\n  }\n}\n",
  "sourcePath": "/Users/yuriikhomych/Projects/dapp-30/day15-dao/frontend/contracts/DAO.sol",
  "compiler": {
    "name": "solc",
    "version": "0.8.13+commit.abaa5c0e.Emscripten.clang"
  },
  "schemaVersion": "3.4.7",
  "updatedAt": "2022-06-24T16:56:31.239Z",
  "networkType": "ethereum",
  "devdoc": {
    "kind": "dev",
    "methods": {},
    "version": 1
  },
  "userdoc": {
    "kind": "user",
    "methods": {},
    "notice": "DAO contract: 1. Collects investors money (ether) & allocate shares 2. Keep track of investor contributions with shares 3. Allow investors to transfer shares 4. allow investment proposals to be created and voted 5. execute successful investment proposals (i.e send money)",
    "version": 1
  }
}